:020000041000EA
:1000000000B5324B212058609868022188439860DF
:10001000D860186158612E4B002199600221596106
:100020000121F02299502B49196001219960352056
:1000300000F044F80222904214D00621196600F024
:1000400034F8196E01211966002018661A6600F04E
:100050002CF8196E196E196E052000F02FF8012189
:100060000842F9D1002199601B49196000215960AB
:100070001A491B48016001219960EB211966A021F2
:10008000196600F012F800219960164914480160C1
:100090000121996001BC002800D000471248134993
:1000A000086003C880F30888084703B5996A0420EC
:1000B0000142FBD001200142F8D103BD02B5186610
:1000C0001866FFF7F2FF186E186E02BD00000240BE
:1000D000000000180000070000035F00212200005C
:1000E000F4000018222000A00001001008ED00E03C
:1000F00000000000000000000000000074B24E7A12
:1001000000200420F7010010C3010010C5010010F9
:10011000C1010010C1010010C1010010C101001097
:10012000C1010010C1010010C1010010C701001081
:10013000C1010010C1010010C9010010CB01001065
:10014000CD010010CD010010CD010010CD01001037
:10015000CD010010CD010010CD010010CD01001027
:10016000CD010010CD010010CD010010CD01001017
:10017000CD010010CD010010CD010010CD01001007
:10018000CD010010CD010010CD010010CD010010F7
:10019000CD010010CD010010CD010010CD010010E7
:1001A000CD010010CD010010CD010010CD010010D7
:1001B000CD010010CD010010CD010010CD010010C7
:1001C00000BE00BE00BE00BE00BE00BE00F04BF888
:1001D000103800BEF2EB8871A06D0010C46D0010E5
:1001E0003402001090A31AE700202149086006C8D5
:1001F00081F3088810471F48006800282FD10DA4FC
:100200000ECC002902D000F012F8F9E71A491B4A77
:10021000002000E001C19142FCD1194988471949E9
:1002200088471949884700BEFDE701C901C29A42C3
:10023000FBD37047C46D0010C00000203C0B0020B1
:1002400040780010000004200000042040780010D6
:1002500000100420001004200000000070470B482C
:1002600004F09EFA0047EFF30580C0B2704700002B
:1002700008ED00E0000000D0400B00204C110020F1
:10028000B92C001069030010DD2D00105756000036
:1002900006005250ABB36053106D00100600525070
:1002A000861C0302206D0010060052505422A29DAD
:1002B0002C6D001005005250DE65F4684078001087
:1002C000F8B5C04610B5064C2378002B07D1054B76
:1002D000002B02D0044800E000BF0123237010BDB2
:1002E000400E00200000000060670010044B10B5B5
:1002F000002B03D00349044800E000BF10BDC046F6
:1003000000000000440E00206067001070B5047803
:10031000002C17D0002120220D26114B00255D5FF7
:10032000104B00290FD1A54214D099690A42FCD183
:100330001C60017801300D394C4261410478C9B22A
:10034000002CEED170BD99690A42F1D099690A4238
:10035000F9D1EDE799690A42FCD11E60E5E7C04694
:10036000401100200040034010B5E124640205F074
:1003700089FA2100474802F02FFC0221002001F0F9
:1003800031FC0221012001F02DFC4348434B08229F
:100390000360EE235B00C4500433C25004330132C7
:1003A000C25000F0F7FB3E48FFF7B0FF00F044FCFE
:1003B000002804D13949374800F072F9FAE7394882
:1003C000FFF7A4FF0020384900F058FD01235A220E
:1003D0000020364900F076FE002817D1FA20800070
:1003E00002F09AF801F01AF8002000F0EDFDFA2072
:1003F000800002F091F801F011F800F0AFFCFA2053
:10040000800002F089F801F009F8D3E72848FFF7E7
:100410007DFFFA20800002F07FF80022254C1000BA
:10042000210001F011F9002830D02348FFF76EFFBA
:10043000FA20800002F070F800F0F0FF21000020A8
:1004400001F058F9FA20800002F066F800F0E6FFAB
:100450001A49002001F0A2F9FA20800002F05CF8AD
:1004600000F0DCFF00217822080000F089FFFA206C
:10047000800002F051F800F0D1FFFA20800002F075
:100480004BF87821002000F0D1FEA7E70C48FFF7D9
:100490003DFFECE700400340280F002000800340B0
:1004A000606700108467001040680010A4670010A7
:1004B000C4670010F0670010006800101868001092
:1004C00024680010F8B5040005F09EFD022828D825
:1004D0003E21200005F038FD002844D02078002877
:1004E00017D0002120220D26624B00255D5F624B54
:1004F00000293AD185423FD099690A42FCD118605F
:10050000217801340D39484241412078C9B2002890
:10051000EED15A4B01211A68F5235B000120D1541A
:1005200022E02578002D18D02000002120220D2760
:10053000504B00269E5F504B002922D1AE4227D05F
:1005400099690A42FCD11D60017801300D394D4294
:1005500069410578C9B2002DEED12000484905F067
:10056000C5FE002819D00020F8BD99690A42C6D0FE
:1005700099690A42F9D1C2E799690A42FCD11E6021
:10058000BAE799690A42DED099690A42F9D1DAE7F5
:1005900099690A42FCD11F60D2E72000394905F071
:1005A000A5FE00280DD03021200005F0CDFC00284C
:1005B000D9D0324B01211A68EA23FF330120D154EC
:1005C000D2E72000304905F091FE00280DD0200030
:1005D0002E4905F08BFE0028C5D0284B01211A6852
:1005E000F4235B000120D154BEE72000284905F028
:1005F0007DFE002807D0214B01211A68EC23FF3330
:100600000120D154B0E72000224905F06FFE061EFC
:1006100007D01A4B01211A68F6235B000120D15440
:10062000A2E720001C4905F061FE051E0DD0302117
:10063000200005F089FC002800D194E70F4B012031
:100640001A68EA23FF33D6548EE72000134905F0D9
:100650004DFE002800D186E73021200005F074FC13
:10066000002800D17FE7054B01201A68F4235B00C6
:10067000D55479E74011002000400340240F0020AA
:1006800054680010586800106868001078680010FE
:100690007C6800108C680010A0680010AC68001026
:1006A000F0B54F464646D6460C000D21C0B5414E2A
:1006B00044270022B35E8C46984600232022050082
:1006C00099463D483D4B4946002959D1B8455ED031
:1006D00099690A42FCD11F60017801300D394F42FF
:1006E00079410778C9B28946002FECD1344B0021FB
:1006F00098461B681868334B9C466044431E9841DB
:10070000143001F0CBFA43461B682F491B689F63E6
:100710006B185A4253415B00F35EFF226718924602
:100720007A4257417A009C469146102320210D229F
:10073000904602E0A269134213D0AA691342F9D18C
:10074000AA691342FCD152462F6817404A46B25E4E
:10075000BA4222D0A2691142FCD12760A269134299
:10076000EBD1A2691342FCD1504622680240904668
:10077000944518D0AA691142FCD142462A60D6E7B6
:1007800099690A42A7D099690A42F9D1A3E7996900
:100790000A42FCD1614619609AE7A2691142FCD174
:1007A00042462260D6E7AA691142FCD10D222A6096
:1007B000E0E7C04640110020B86800100040034048
:1007C000240F002000C0FCBF0080FCBFF0B5DE4657
:1007D0004E4645465746E0B5060083B00A2004F071
:1007E000C1FE81461E2004F0BDFE794B834698462B
:1007F000784BF3185A4253415B0001934124002285
:1008000020230D207449019D002A5FD1734A525F55
:10081000A24262D0B2691342FCD122000D3A346088
:10082000544262414C780131D2B2002CECD1042305
:100830009A46330020254E469946694C0A220021EB
:10084000300004F0ADFE0A270AE043461B680A2286
:100850003100181D01F03CF902284FDC002F0CD0AC
:1008600043461B68181D01F019F90028EDD101203D
:10087000013F01F051FE002FF2D101235B429C4663
:10088000E2445346002BD9D14B4643240021202279
:100890000D27B1461E00514B524800255D5F504B5D
:1008A00000291FD1A54224D099690A42FCD11C60BD
:1008B000017801300D394C4261410478C9B2002CF5
:1008C000EED1FA20C00001F027FE97E7B26913428B
:1008D000A3D0B2691342F9D19FE7B2691342FCD1A8
:1008E000306097E799690A42E1D099690A42F9D1E3
:1008F000DDE799690A42FCD11F60D5E7300005F0B9
:1009000083FB330002003849584603F015FF5B466D
:100910001978002916D0314B5A460020185E0D2751
:100920000023002B3CD1884241D0A3691D42FCD159
:100930002160137801320D3B59424B411178DBB2F3
:100940000029EED13000294905F0D0FC002894D0D0
:10095000B1460021532620220D25204B2448002497
:100960001C5F1F4B002927D1B4422CD099690A4241
:10097000FCD11E60017801300D394E42714106787C
:10098000C9B2002EEED1484604F0FEFD584604F0F0
:10099000FBFD03B0F0BCBB46B246A946A046F0BD85
:1009A000A3691D42C4D0A3691D42F9D1C0E7A36960
:1009B0001D42FCD12760B8E799690A42D9D09969EC
:1009C0000A42F9D1D5E799690A42FCD11D60CDE709
:1009D000240F00200080FCBFE868001040110020B8
:1009E00000400340FC6800102869001054680010A3
:1009F000EC680010F8B54E46DE4645465746894637
:100A0000E0B50400202004F0ADFD4B461D78060043
:100A1000002D40D05B4948468C465B49CA46671862
:100A200039004F424F410D210022202388467F008C
:100A3000002A56D16246BA5EAA4259D0A269134230
:100A4000FCD1012152468B4625601278DA4451468A
:100A50000D3A55426A410D78D2B2002DE8D14B468D
:100A60001C78002C17D0002120220D27454B002593
:100A70005D5F464B002941D1A54246D099690A42A3
:100A8000FCD11C60017801300D394C426141047881
:100A9000C9B2002CEED1FA20800001F03DFD394BA7
:100AA0003B4D9846394F2B680A21181D00F076FF00
:100AB00000285DD00A2409E02B680A223100181DA5
:100AC00001F006F8022825DC002CECD02B68181D5C
:100AD00000F0E4FF0028EFD1012001F01DFD013CF2
:100AE000F2E7A2691342ACD0A2691342F9D1A8E798
:100AF000A2691342FCD1424622609FE799690A42EB
:100B0000BFD099690A42F9D1BBE799690A42FCD181
:100B10001F60B3E7002CC6DD3478002CC3D04346F9
:100B200000229A5E0D209146002231002023844647
:100B3000002A10D1A14515D0BA691342FCD13C60FE
:100B40000A7801310D3A544262410C78D2B2002C3D
:100B5000A9D0002AEED0BA691342F0D0BA69134284
:100B6000F9D1ECE7BA691342FCD162463A60E3E797
:100B7000300004F009FDF0BCBB46B246A946A046D1
:100B8000F8BDC046401100200080FCBF004003407B
:100B9000240F0020F8B50368F0228360EE21F223D1
:100BA0001F4C5B0052004900C358825841582060D6
:100BB000043000F09FFE4925002120220D272368E4
:100BC00018481C68184B00269E5F184B00291AD144
:100BD000AE421FD099690A42FCD11D6001780130F4
:100BE0000D394D4269410578C9B2002DEED1200082
:100BF000FFF7ECFD20000E49FFF7FCFE20000D4939
:100C0000FFF7F8FEF8BD99690A42E6D099690A42F1
:100C1000F9D1E2E799690A42FCD11F60DAE7C046E0
:100C2000240F0020386900104011002000400340CC
:100C3000546900105C690010F0B54F464646D64630
:100C4000414C424D2368C0B51B68414A5E193500CE
:100C50006E426E410D259046914641200021202292
:100C6000AC463C4F7600002954D1B95F814258D040
:100C700099690A42FCD101218A460100D1440D390B
:100C800018604842414148460078C9B20028EAD17C
:100C90000023FD5E40464126002120220D272E4BD9
:100CA000002944D1B54249D099690A42FCD11E605D
:100CB000017801300D394E4271410678C9B2002EDB
:100CC000EED1FA20C00001F027FCEA232568FF33AB
:100CD000EE54802004F046FC060009E023680A2256
:100CE0003100181D00F0F4FE3000FFF7EBFB256823
:100CF0000A21281D00F052FE0028EFD1300004F038
:100D000043FCEA232268FF33D05CE0BCBA46B1461C
:100D1000A846F0BD99690A42ADD099690A42F9D155
:100D2000A9E799690A42FCD161461960A0E799696F
:100D30000A42BCD099690A42F9D1B8E799690A42D6
:100D4000FCD11F60B0E7C046240F00200080FCBF2C
:100D5000646900104011002000400340F0B54F4688
:100D60004646D646404C414D2368C0B51B68404AB4
:100D70005E1935006E426E410D2590469146412028
:100D800000212022AC463B4F7600002953D1B95FA9
:100D9000814257D099690A42FCD101218A4601005B
:100DA000D1440D3918604842414148460078C9B2E3
:100DB0000028EAD10023FE5E404641250021202282
:100DC0000D272D4B002943D1AE4248D099690A42E4
:100DD000FCD11D60017801300D394D426941057823
:100DE000C9B2002DEED1FA20800001F095FB8020E1
:100DF00004F0B8FB050008E023680A222900181D4A
:100E000000F066FE2800FFF75DFB23680A21181D2D
:100E100000F0C4FD0028EFD1280004F0B5FBEA2360
:100E20002268FF33D05CE93BFF3B5840E0BCBA4648
:100E3000B146A846F0BD99690A42AED099690A4206
:100E4000F9D1AAE799690A42FCD161461960A1E784
:100E500099690A42BDD099690A42F9D1B9E79969FD
:100E60000A42FCD11F60B1E7240F00200080FCBFC4
:100E7000746900104011002000400340F0B5D646D0
:100E80004F464646C0B5040082B032200E0004F042
:100E900069FB81462300464A4649009603F04CFC14
:100EA0004A46454B15789A461B681B68002D3DD075
:100EB000424C4846A446424C4E461F193C006742ED
:100EC00067410D2400212022A0467F00002954D133
:100ED0006146795EA94257D099690A42FCD11D60EA
:100EE000317801360D394D4269413578C9B2002D4E
:100EF000ECD14B461F78002F18D00D240021202262
:100F0000A4462E4B00269E5F2E4B002942D1BE42A6
:100F100047D099690A42FCD11F60017801300D3930
:100F20004D4269410778C9B2002FEED1FA20C000C6
:100F300001F0F2FA802004F015FB060009E05346A8
:100F40001B680A223100181D00F0C2FD3000FFF7B7
:100F5000B9FA53461B680A21181D00F01FFD00282E
:100F6000EDD1300004F010FB484604F00DFB02B058
:100F7000E0BCBA46B146A846F0BD99690A42AED077
:100F800099690A42F9D1AAE799690A42FCD1414616
:100F90001960A1E799690A42BED099690A42F9D15C
:100FA000BAE799690A42FCD161461960B1E7C046C7
:100FB0008469001094690010240F00204011002063
:100FC0000080FCBF00400340F8B5CE464746050010
:100FD00080B5322004F0C6FA81462B00334A3449EA
:100FE00003F0AAFB4A46334B17781B681B68002F97
:100FF0003CD0314C4846A046304C4D461E1934007A
:10100000664266410D2400212022A4467600002974
:1010100033D14146715EB94236D099690A42FCD15A
:101020001F60297801350D394F4279412F78C9B2B7
:10103000002FECD14B461D78002D17D00021202227
:101040001D4B0D3700269E5F1D4B002922D1AE425D
:1010500027D099690A42FCD11D60017801300D3911
:101060004D4269410578C9B2002DEED1484604F0E1
:101070008BFAC0BCB946B046F8BD99690A42CFD0D8
:1010800099690A42F9D1CBE799690A42FCD16146D4
:101090001960C2E799690A42DED099690A42F9D11A
:1010A000DAE799690A42FCD11F60D2E7A069001013
:1010B000B0690010240F0020401100200080FCBF08
:1010C00000400340F0B5D6464F464646C0B5040042
:1010D00084B064200E001D00170004F043FA81461E
:1010E00023004C4A4C4902950096019703F024FBDB
:1010F0004A464A4B15789A461B6848464E46002198
:101100001B68002D3AD0464C2022A446454C1F199E
:101110003C00674267410D24A0467F0000295FD153
:101120006146795EA94262D099690A42FCD11D608C
:10113000317801360D394D4269413578C9B2002DFB
:10114000ECD14B461F78002F18D00D24002120220F
:10115000A446334B00269E5F334B00294DD1BE423F
:1011600052D099690A42FCD11F60017801300D39D3
:101170004D4269410778C9B2002FEED1FA20C00074
:1011800001F0CAF9484604F0FFF953461D68F423FC
:1011900000225B008020EA5404F0E4F906000BE032
:1011A00053461B680A22181D310000F091FC3000E4
:1011B000FFF788F953461D680A21281D00F0EEFB51
:1011C0000028EDD1300004F0DFF953461A68F4230B
:1011D0005B00D05C04B0E0BCBA46B146A846F0BDA6
:1011E00099690A42A3D099690A42F9D19FE799699E
:1011F0000A42FCD14146196096E799690A42B3D088
:1012000099690A42F9D1AFE799690A42FCD161466E
:101210001960A6E7B8690010CC690010240F0020FF
:10122000401100200080FCBF00400340F8B5DE46BE
:101230004E46574645460400E0B564200E0004F0D3
:1012400091F98146330022004749484803F074FA77
:101250004A46474C167823681B68002E3DD0454807
:10126000454A1F183800474247410D209446CA4658
:1012700035000021202280467F00002959D1614697
:10128000C95FA9425CD099690A42FCD101218B4611
:101290002900DA4450460D391D604D4269410578F8
:1012A000C9B2002DE9D163460D3548460021202200
:1012B000AC460027DF5F314B002947D1B7424CD005
:1012C00099690A42FCD11E60017801300D394E4205
:1012D00071410678C9B2002EEED1484604F054F9A7
:1012E000FA20400001F018F9802004F03BF90500D5
:1012F00008E023680A222900181D00F0E9FB2800F5
:10130000FFF7E0F823680A21181D00F047FB0028CA
:10131000EFD1280004F038F9F42322685B00D05C98
:10132000E83BFF3B5840F0BCBB46B246A946A0464E
:10133000F8BD99690A42A9D099690A42F9D1A5E78D
:1013400099690A42FCD1414619609CE799690A42B1
:10135000B9D099690A42F9D1B5E799690A42FCD135
:1013600061461960ACE7C046E0690010F069001002
:10137000240F00200080FCBF4011002000400340EB
:10138000F0B5050083B064200E00170004F0EAF801
:1013900004002B001C4A1D490197009603F0CCF96C
:1013A0002578002D18D02000002120220D27184B71
:1013B00000269E5F174B00291AD1AE421FD09969B3
:1013C0000A42FCD11D60017801300D394D4269415E
:1013D0000578C9B2002DEED10F4B21001B681868AB
:1013E000FFF708FB200004F0CFF8012003B0F0BDA8
:1013F00099690A42E6D099690A42F9D1E2E7996906
:101400000A42FCD11F60DAE7FC6900100C6A001088
:101410004011002000400340240F002070B58020C0
:1014200004F0A0F80B4D040008E02B680A2221000C
:10143000181D00F04DFB2000FFF744F82B680A212F
:10144000181D00F0ABFA0028EFD1200004F09CF842
:1014500070BDC046240F0020F0B5DE4657464E460C
:101460004546E0B5040083B080208B4604F07AF84E
:10147000714E070008E033680A223900181D00F099
:1014800027FB3800FFF71EF833680A21181D00F00B
:1014900085FA00900028EED1380004F075F8336822
:1014A00027781B68002F1FD0644920008C466449B0
:1014B000002459180D00694269410D252022A846D3
:1014C0004900002C2ED164460C5FBC4231D09C698F
:1014D0002242FCD11F60047801300D3C67427C4100
:1014E0000778E4B2002FECD1FA20400001F014F8A4
:1014F000F523002230685B00C2543E21043000F026
:101500004DFA00281BD1F522336852009A5C0192F3
:10151000002A2BD1019803B0F0BCBB46B246A946C5
:10152000A046F0BD9C692242D4D09C692242F9D1E8
:10153000D0E79C692242FCD144461C60C7E70A20E0
:1015400004F010F8040033683E22181D210000F05A
:10155000BFFA2000FEF7B6FF200004F015F8F522D0
:10156000336852009A5C0192002AD3D05A46177809
:101570005C465E4600211B68002FCBD02F4D2022F9
:10158000A9462F4DA846984440464542454168002B
:1015900080460D20824600293AD149464546695E7B
:1015A000B9423CD099690A42FCD11F6031780136BA
:1015B0000D394F4279413778C9B2002FEBD15B46E4
:1015C0001E78002EA6D00D211C4B8C4600990027BA
:1015D000DF5F20221B4B002913D1B74225D0996928
:1015E0000A42FCD11E60257801340D3D69424D410F
:1015F0002678E9B20091002E00D18BE700990029EE
:10160000EBD099690A42EDD099690A42F9D1E9E72C
:1016100099690A42C9D099690A42F9D1C5E799691D
:101620000A42FCD151461960BCE799690A42FCD1D3
:1016300061461960D3E7C046240F00204011002006
:101640000080FCBF00400340F0B5C64600B5040072
:1016500082B064201700884603F084FF05004046EE
:1016600004F0D2FC01970090230028001D4A1E4977
:1016700003F062F82F78002F19D00D2629000024DE
:101680002022B446194B0020185E194B002C1BD1A8
:10169000B84220D09C692242FCD11F600C780131F5
:1016A0000D3C67427C410F78E4B2002FEED14146F9
:1016B0002800FFF7D1FE0400280003F065FF20009A
:1016C00002B080BCB846F0BD9C692242E5D09C695E
:1016D0002242F9D1E1E79C692242FCD164461C60B8
:1016E000D8E7C046186A00100C6A001040110020AC
:1016F00000400340F0B5C64600B5040082B0642047
:10170000884603F02FFF0500404604F07DFC2300CF
:1017100000901E4A28001E4903F00EF82F78002F73
:1017200019D00D26290000242022B446194B002090
:10173000185E194B002C1BD1B84220D09C69224264
:10174000FCD11F600C7801310D3C67427C410F7861
:10175000E4B2002FEED141462800FFF77DFE0400E1
:10176000280003F011FF200002B080BCB846F0BD95
:101770009C692242E5D09C692242F9D1E1E79C694B
:101780002242FCD164461C60D8E7C0462C6A001097
:101790003C6A00104011002000400340F0B5C646EE
:1017A00000B5040082B06420884603F0DBFE05002B
:1017B000404604F029FC230000901E4A28001E49E0
:1017C00002F0BAFF2F78002F19D00D26290000242F
:1017D0002022B446194B0020185E194B002C1BD157
:1017E000B84220D09C692242FCD11F600C780131A4
:1017F0000D3C67427C410F78E4B2002FEED14146A8
:101800002800FFF729FE0400280003F0BDFE200099
:1018100002B080BCB846F0BD9C692242E5D09C690C
:101820002242F9D1E1E79C692242FCD164461C6066
:10183000D8E7C046486A00103C6A001040110020FA
:1018400000400340F8B52A4DCE462E684746310089
:101850007268113193690024102080B5FF31DB06D6
:1018600021D493691842FCD113680B559369013454
:10187000184201D1C82CF4D1B368F268D71A002FEE
:101880002FDD1A199046FF2A11DC30001030C018E5
:10189000220003F08BFE43462D68AB60A74202DCBA
:1018A00043460133EB60C0BCB946B046F8BD802268
:1018B0005200D21A300092B291461030C01803F094
:1018C00075FE4B462D68E31A290028009846113111
:1018D000FF311A001030494403F068FE4346AB6004
:1018E000DCE701371A199046FF37FF2ACDDDDEE726
:1018F000200F002070B515001C00254E3060406898
:1019000001F06AF92800022100F06CF920000221A0
:1019100000F068F9336880255868C023026B1B0209
:101920001A4003006D0130332B431A601022C36A42
:1019300018491A4003002C332B431A60164B9C465F
:101940006044431E98411430040000F0C1F92000A7
:10195000012100F0A3F950223468636820009A63E3
:10196000596B183A34331D430A402A600023802201
:10197000A360E36000215200103003F011FE20004C
:101980001130C8220021FF3003F00AFE70BDC046AE
:10199000200F00204518001000C0FCBFF8B54546D8
:1019A00057464E46DE468368C468E0B59AB2A7B291
:1019B000050088469146BA4210D924041B04240C21
:1019C0001B0C1B1B9A4653460026002B16DC3000CE
:1019D000F0BCBB46B246A946A046F8BD0026BA42B6
:1019E000F5D280222404240C5200121B92461904C2
:1019F000090C8A4453460026002BE8DD8020400075
:101A000003F0B0FD8346002845D0B94508D807D378
:101A10000022210010315846691803F0C7FD1CE070
:101A200053461A04130C9946534527DC80264B462F
:101A30007600F61BB6B29BB2B34228D92100103112
:101A400032006918584603F0B1FD5B462900981929
:101A50004B4610319A1B03F0A9FD524641465846A9
:101A600004F05EFE002814D05B46C61A0136731ED1
:101A70009E41F6B2584603F087FDA8E7D14680267E
:101A80004B467600F61BB6B29BB2B342D6D84A4656
:101A9000BFE70026EEE7012699E7C0468368C268E3
:101AA00010B591B29CB28C4205D91B0410041B0CDA
:101AB000000C181A10BD00208C42FBD280211204A9
:101AC000120C49001B04891A180C0818F2E7C046CA
:101AD000F0B54E464546DE465746E0B580267600D0
:101AE000050083B030008946904603F03BFD041E9C
:101AF00000D174E0E968AB688A469AB289B28A423A
:101B000014D952461E0417043F0C360CF61B002E47
:101B100017DC01267642200003F036FD300003B0CA
:101B2000F0BCBB46B246A946A046F0BD8A42F0D200
:101B3000524617043F0C1B04F61B1B0CF618002E14
:101B4000E7DD3204130C9B46B34229DC80225200AD
:101B5000511A5B468AB239009BB210316918934220
:101B600020D92000019203F021FD5B462900019A53
:101B70001031A0189A1A03F019FD320041462000D6
:101B800004F0CEFD002827D0061B13D50136330400
:101B90001B0CFF18FF2F0ADD013FFF3FEF60BAE784
:101BA000B346D3E75A46200003F000FDE5E753446F
:101BB000EB60B0E74B46002201369B191A702100FA
:101BC0003200484603F0F2FCEA68330417041B0CA9
:101BD0003F0C9246FF18DDE700260023DAE70126D6
:101BE00076429BE7094A830094464022634410B53D
:101BF0001C68C0006240C02414408022520113437C
:101C00001C60034B9C466044416010BD04C0014011
:101C10000040014070B5EFF3108C72B60D4D2B688B
:101C2000002BFCD0BFF35F8F0724CB08C618C05C25
:101C300001230C40A3401C000440034207D103438E
:101C40003370BFF35F8F2C608CF3108870BD100071
:101C500001F0C6F82C0100D0024B18688007C00FB5
:101C60007047C04600C006400021044B044ABFF341
:101C70005F8F02C39342FAD17047C046000100D083
:101C8000800100D0044A1078431CDBB2172B00D926
:101C9000102313707047C046340200200123834094
:101CA000002904D0034A1360034A13607047034AB3
:101CB0001360FBE780E200E000E100E080E100E08B
:101CC000024B10309B688000C058704700ED00E068
:101CD00070B50D00EFF3108672B60F4A1368002B33
:101CE000FCD0BFF35F8F0D4B10309B6884001B59F5
:101CF0000B4A934203D09D4201D001F089F8074B73
:101D00009B681D51BFF35F8FBFF35F8F0022024BB3
:101D10001A6086F3108870BD240100D000ED00E049
:101D2000CD010010F0B5DE4657464E464546E0B5BB
:101D30000C0083B0EFF3108A72B65A4A1368002B76
:101D4000FCD0BFF35F8F1022914681444A46564B28
:101D500096009B689D59554B98469D4205D0A542DB
:101D600016D0534FEB1B2F2B14D94F4B9B689D5113
:101D7000BFF35F8FBFF35F8F00224A4B1A608AF375
:101D8000108803B0F0BCBB46B246A946A046F0BDE1
:101D90001D00EAE7012383409B465A46454B1B68DA
:101DA0001A4000925A46444B1A60BFF35F8FFEF709
:101DB0005AFA0190002803D0814501D001F028F89B
:101DC00001232A009A4393689C4208D15FE04B00AC
:101DD0005B189B00FB189968A14211D01A000621DC
:101DE00051560029F3DA009B002B05D05A46334B9D
:101DF0001A60304B1A60B8E75A462F4B1A60B4E7A6
:101E000006215956002921DB4A00501880003C1851
:101E10008046A0689860E079D871062020569871B5
:101E2000002824DBA488F81A64052415444400190A
:101E3000E0240005400D2402204398805218204BD6
:101E40009200BF181A781970BA71CCE7019900296D
:101E500010D1FF3191711B49918019490A789A710B
:101E6000194ADB1B5B415A43120D0A70BBE7BD20C8
:101E70000002E2E7154A1649D21A083A5002400D0C
:101E800001439980134952080A43DA80ABE70621DF
:101E9000515613000029B7DA019A002AEAD14546C3
:101EA000DBE7C046240100D000ED00E0CD010010CA
:101EB0003802002000E100E080E100E080E200E084
:101EC0004911002000BDFFFFAAAA000072020020F5
:101ED00000F0FFFF00F8FFFFF8B5012504000543FF
:101EE000FEF7C1F9EFF3108C72B6214A1368002B8C
:101EF000FCD0BFF35F8F1F4E2100B7681E4A1F4BF7
:101F0000891A49414B431B0D59B28300F858A84226
:101F10001CD00623D3568B421CD01223D3568B429F
:101F200022D01E23D3568B4220D02A23D3560320FF
:101F30008B4210D0124B1A781970A271BFF35F8FC9
:101F400000220B4B1A608CF31088F8BDB2680D4864
:101F5000D050EFE7002043001B189B00D218FF234E
:101F60009371094B9380E5E70120F4E70220F2E743
:101F7000240100D000ED00E038020020AAAA0000F1
:101F800049110020CD01001000BDFFFF054B064A9E
:101F90001360064A136053609360D360136153610A
:101FA000936170478080808000E400E004E400E0FA
:101FB000024B9C4661448900016070474000003438
:101FC00083680B4810B584466144624409011201DC
:101FD0009A18591854684B6801209C4201D802D0C5
:101FE0000020C0B210BD12680B689A42F9D8F7E71A
:101FF000FFFFFF0F0A4B1968EFF3108072B60A68F3
:10200000002AFCD0BFF35F8F1B68BFF35F8F0022F5
:102010001A6080F3108840BF002000217047C0463E
:102020002C110020F8B557464E464546DE46E0B531
:1020300099460CAB1C780DAB1B78060090469A466F
:102040000768002C11D1BC7B002C42D065003B6896
:102050002D19033D59194B78BB73002B00D1FB732D
:1020600000238B704B700B7004E065003B682D19EA
:10207000033D5919B2682A4B94464246E3181B01A6
:1020800063441A604A465A600A9A9A600B9ADA6068
:1020900000238B704B700B707B7B9B46002B2BD0EF
:1020A00022005946B8687B6898473A68002816D0DD
:1020B0005B4658465B005B445519033BA870D1183A
:1020C000D35C002B00D06B705B460C707B73A34518
:1020D00013D0F0BCBB46B246A946A046F8BD5B464D
:1020E0005B005B44033BD3189C705119525D002A7E
:1020F00000D05A705B460B707C7342464B46307D75
:1021000000F0EEFA051E06D05346002B03D1210045
:10211000306800F007FD0E9B002BDAD01D70D8E769
:10212000FFFFFF0FF0B5DE464E46574645460023FB
:10213000E0B58DB00A936B4B8200D3580B90994653
:1021400000239B464B46079300F06AFA079C060063
:102150000F006268EFF3108572B61368002BFCD095
:1021600022000794BFF35F8F2468637B9946002B9E
:1021700067D092685C4B90464B441B0198444346A1
:102180001A685B6810001900801BB94100295FDDE7
:102190000B9800F0A5FA00230026984600279A46DF
:1021A000079C6368BFF35F8F5A461A6085F31088F7
:1021B0005346002B08D10028C6D10DB0F0BCBB4659
:1021C000B246A946A046F0BD0A9B414618024B46BE
:1021D0001843D047089009916268EFF3108572B6F2
:1021E0001368002BFCD00794BFF35F8F0899099AFE
:1021F000002A48DB114303D0079B1B69002B5DD1EC
:10220000079B1B68D97B002907D04A005218196820
:102210008C4649466244033A51704A46DA734B464B
:10222000079A013BD168CA5C0132CA545B46079ADF
:1022300013615368BFF35F8F5A461A6085F31088A5
:1022400082E700230026984600279A460020A7E749
:10225000002901D100289BD10021200000F0E4FBDF
:1022600043461E685F689B68079A9A464346DB6848
:102270009846D3684B44013B1B780A931B020343E7
:10228000136100208CE72369002BB9D033003C0098
:102290005B1A94411A002300A74219D89F421BD011
:1022A0005946049101210391494602914146019109
:1022B000514607980091FFF7B5FEB7E700F0B0F977
:1022C000089A099B06000F0092197B419942E5D9B3
:1022D00001225242D317E3E79642E1D9012252424A
:1022E000D317DDE718110020FFFFFF0FF8B55746A1
:1022F0004E464546DE46E0B5404D81468A466A6810
:10230000EFF3108872B61368002BFCD0BFF35F8F19
:102310002E68B47B002C39D0670033683F19033F27
:10232000DB195A78B273002A00D1F273A968344AD3
:102330008C464946A2181201624411605146516010
:10234000304991600021D160997059701970737B88
:102350009B46002B35D022001900B068736898475F
:102360003268002820D05B4658465B005B44D71992
:10237000033BB870D118D35C002B00D07B705B4658
:102380000C7073735C451DD0002626E06B68BFF3AC
:102390005F8F1C6088F3108801204042F0BCBB4670
:1023A000B246A946A046F8BD5B465B005B44033BD2
:1023B000D3189C70D119D25D002A00D05A705B46A8
:1023C0000B7074734A465346287D00F089F9061E47
:1023D000DAD02100286800F0A5FBEB681B19013B4F
:1023E00019786B68BFF35F8F00221A6088F310883A
:1023F0000020002ED2D108022043CFE78002002027
:10240000FFFFFF0FF51F001010B5124C6368002B83
:1024100004D00A211048FFF7CBFD10BD23000F4A5E
:102420001021206800F01EFA032000F0EDF80320D0
:1024300000F0C6F903200A4900F00CF9FFF722FC6E
:10244000084B9C46032360442375074B8000606063
:10245000DC60DEE7800200202C110020C11F00108C
:10246000252100104000003418110020F0B50400B0
:102470000D0006267642F717C64636196F4100B59D
:102480008F4213D810D000F0CBF832003B00121A64
:102490008B41002B14DC002B37D02900200000F0EA
:1024A000C9F880BCB846F0BD8642ECD900260027AA
:1024B00000F0B6F832003B00121A8B41002BEADD27
:1024C00030003900FFF712FF0028E6DB00239846B2
:1024D000BC460F4A0F4F7B6A9C4504D8B96A8E42AE
:1024E000DBD99C45D9D11168EFF3108072B60B6827
:1024F000002BFCD0BFF35F8F1368BFF35F8F4146A3
:10250000196080F3108820BFE5E7002AC5D0D7E71F
:102510002C1100200040054070B5060000F080F846
:10252000FA2204000D00002330000021920002F086
:10253000B7FF001969418D4205D802D0FFF796FF19
:1025400070BD8442FAD901204042C117F6E7C04667
:10255000F0B5D6464F464646C0B5EFF305833F2259
:10256000134018001038EFF3108C72B6204D2A6813
:10257000002AFCD0BFF35F8F0122110081401D4C67
:10258000884661631C4917000E788A463100C140B5
:102590000F400A4209D1BFF35F8F2F608CF3108880
:1025A000E0BCBA46B146A846F0BD14498200646A50
:1025B00051588C420FD3124BD25843469E43534638
:1025C0001E70BFF35F8F00232B608CF31088002AEE
:1025D000E6D09047E4E70B4A9B00904643441A68D4
:1025E0001A60BFF35F8F00232B608CF31088D7E74E
:1025F000280100D0004005404A1100203011002081
:10260000940E0020D03F054010B50100024A034857
:10261000FFF700FB10BDC0465C6A001048110020A7
:10262000034B596A0A00986A596A8A42FAD170477C
:1026300000400540064A536A9942FCD807D1044B32
:1026400002E05A6A914202D19A6A8242F9D37047F3
:102650000040054070B504000D00EFF3108672B61F
:102660001A4A1368002BFCD0BFF35F8F002D1BD0DC
:102670002000FFF725FB164981420AD02000FFF712
:1026800027FB01212000FFF709FB0123A340114A8A
:102690001360114BA400E550BFF35F8F00220B4B7A
:1026A0001A6086F3108870BD0B4BA200D550012232
:1026B000A2400A4920000B7893430B700449FFF7AE
:1026C00031FB00212000FFF7E9FAE5E7280100D0FF
:1026D0005125001038600540940E00204A1100205A
:1026E000F0B54F46D6464646C0B507002F4C616A46
:1026F0000D00A66A616AA942FAD18B4208D805D0BA
:102700000120E0BCBA46B146A846F0BDB242F7D9B6
:10271000EFF3108A72B6264801680029FCD0BFF397
:102720005F8F0125BD402349204C884609788946A2
:102730002943C9B28C46414660460870391D1E487F
:10274000890065630A51B9000B50216A00202942B3
:1027500019D0616A0800A66A616A8142FAD18B4287
:1027600019D801D1B24216D8CC451DD00F4B1F202D
:102770001D625D6301230740BB40104A1E38136091
:1027800043464A461A70BFF35F8F0022084B1A6017
:102790008AF31088B5E70020BFF35F8F0022044B57
:1027A0001A608AF31088ACE70120ECE7004005408E
:1027B000280100D04A1100203011002080E200E002
:1027C000EFF3108C72B60A490B68002BFCD0BFF3F4
:1027D0005F8F01238340074A0748136202789A43B8
:1027E0000270BFF35F8F00230B608CF3108870477B
:1027F000280100D0004005404A11002070B50500B6
:1028000014001600002915D00C00002A12D0806890
:102810006B689847296800280ED073009B196200E6
:10282000033B1219CB18033A9C7088188A5C002A63
:1028300015D10670200070BD63001B197200033BA8
:102840009219CB18033A9E7088188A5C002A02D12C
:1028500004703400EEE75A7004703400EAE75A70EE
:102860000670E7E730B583600023CCB243730133D1
:10287000047342608373C4730D000068012C06D991
:10288000421C0133DBB2137003329C42F9D1FF21A9
:1028900029404B005918002340180338437030BDBD
:1028A000F8B5CE46474606000C0080B5002907D093
:1028B0004D0003686D18033D5A195778002F04D155
:1028C0002000C0BCB946B046F8BD7900C91903392B
:1028D000884643445978894600215970517073687D
:1028E0003A002100806898473368002814D0424697
:1028F0009A18947059195B5D002B00D053700F70BB
:10290000270049463000FFF7CBFF390002003000B6
:10291000FFF774FF0400D3E7424641465D19AF70EC
:102920009A185B5C002B00D06B701470E9E7C0460E
:10293000F0B557464546DE464E46E0B50D006B0005
:1029400001685B19DF1E0400C85D83B00192CA19DB
:1029500000284CD043001B18033BCB185E78B446CC
:10296000002E16D1019E002E3ED0E67B002E04D014
:1029700073009B19CB18033B5D70E57300282FD1C2
:102980000023537003B0F0BCBB46B246A946A04634
:10299000F0BD72006244033A89184A7890460022DA
:1029A0004A7091465A70010032002000FFF726FF5E
:1029B00043468246002B07D05B0021684344033B1B
:1029C000CB185A78002A16D1424651462000FFF70C
:1029D00015FF2168019BCA19002BC6D10028CFD052
:1029E00043001B18033BCB1800219970C8E7019BDB
:1029F000002BBAD1C4E75000801803380918487872
:102A0000834648464870587041462000FFF7F6FE5E
:102A1000594680462000FFF743FF41460200200050
:102A2000FFF7ECFE8046CFE7F0B557464546DE4659
:102A30004E46E0B583B00191457B04006B00006811
:102A40005B19DF1EC15DC21900294ED04B005B1817
:102A5000033BC3185E78B446002E18D1019E002EA9
:102A600040D0E67B002E04D073009B19C318033BB3
:102A70005D70E573002931D1002328005370617324
:102A800003B0F0BCBB46B246A946A046F0BD7200FA
:102A90006244033A80184278904600224270914680
:102AA0005A7020003200FFF7A9FE43468246002BF1
:102AB00007D05B0021684344033BCB185A78002AB7
:102AC00017D1424651462000FFF798FE019B0100B6
:102AD0002068C219002BC4D10029CDD04B005B184F
:102AE000033BC31800209870C6E7019B002BB8D1A8
:102AF000C2E75000801803380918487883464846D2
:102B00004870587041462000FFF778FE59468046CD
:102B10002000FFF7C5FE414602002000FFF76EFED1
:102B20008046CEE770B5040000292CD0437B8B4251
:102B30002ED0056848004018033828188278002AEB
:102B400021D053009B18033BEA5CEE188A4202D165
:102B50001BE0002A08D053009B18033BEB185A785F
:102B60008A42F6D142785A70002301228370437062
:102B70002000FFF7DDFE617B02002000FFF73EFE34
:102B80006073012000E0002070BD43783370EBE7F4
:102B900001221900FFF7CCFE60730120F4E7C04664
:102BA00010B50400FFF76EF801002000FFF700FAEF
:102BB000FF232371BFF35F8F10BDC04610B5040023
:102BC000FFF760F801002000FFF7F2F9FF23A38070
:102BD000BFF35F8F10BDC046F8B5040006200D009E
:102BE00000F07AFA002844D02A4B2B49E2185342CD
:102BF0005A418023DB039C469205284B62441A60AD
:102C0000274B1A6010008B689843FBD1214B802121
:102C1000E3185A425341234A5B0049009952062067
:102C200000F05AFA2900C00001F014FEC30921D1B6
:102C300040270121260080256162A36200232C36F3
:102C4000AD0135432B60062000F046FA39008000C4
:102C500001F000FE6023E26A53406E221A40802396
:102C60005B0133431A60104B236310232B600D3B31
:102C7000A364F8BD0D4A934203D900230C4F0D49BC
:102C8000D8E77F221040013040089F0119003F180B
:102C90000300CFE70080FCBF00C0004000E0004020
:102CA00000F000404011002001030000FEFF000082
:102CB000C0FF3F00FFFF00002C4B2D4A70B51A608B
:102CC0002C4A2D4B2D491A6014008B689C43FBD174
:102CD0002B4D2C4EB54208D2013E761BB60808CDCE
:102CE000984723000134B342F9D100F097F8264AFF
:102CF000214B1A60214A9368DB43DB01DD09002B7D
:102D0000F9D14022214B224C224E9A675A671A670A
:102D1000DA66B44208D223682000002B20D00834A1
:102D2000FFF74CFFB442F6D31B4E1C4CC022A168E7
:102D3000300002F03BFCA660FEF796FFFFF726F995
:102D4000FFF762FB164C174EB44208D2013E361B09
:102D5000B60808CC98472B0001359E42F9D170BDCA
:102D60000834FFF71DFFB442D5D3DDE700E0004093
:102D7000BFCDFBFEFE7F3C0000F0004000C00040E5
:102D8000280B0020380B0020FFFFFF0100F001405E
:102D9000200B0020280B00200000002000ED00E0A8
:102DA000380B00203C0B0020094A03001068002863
:102DB00005D00849C3188B4207D8136070470648EE
:102DC0000449C31810608B42F7D901204042F5E74F
:102DD000180F0020000004204C11002000BEFDE769
:102DE0000FB400B5084883B002F016FD049B002B19
:102DF00007D005A91800019101F0B2FC034802F0C8
:102E00000BFD00BEFDE7C046806A0010506900104F
:102E100010B50148FFF7E4FF906A001030B50C20B0
:102E200083B000F0B7F9FEF717FF00280ED0944BDF
:102E3000944A1A605A609A60DA601A615A619A611B
:102E4000DA611A62904A5A6203B030BD8F4CA067B3
:102E500000F0A8F901228E4B1A60636C012BFCD1A3
:102E600003228C4B1A60894A936B012BFCD10133EE
:102E70000121894A89480093043300F033F905237E
:102E8000874A00930121874800F02CF9864B5A6845
:102E9000FF2A02D8802252005A608022784C7D4B53
:102EA00021691201804D1A60002905D0606901F086
:102EB000D1FC01300138FDD1E0217B4B02201A68A2
:102EC0001140802252012A431160196848400321B1
:102ED0000140116004219A681142FCD080228021B7
:102EE00092012A4309011160802252005A606F4BFF
:102EF00023616F4B5968FF2900D85A600321644A47
:102F00006B4B116002399A681142FCD0E0201A68BC
:102F10001040802252011A43106018684840032173
:102F200001400220116062498A681042FCD0802270
:102F300092011343802212011A6080225D4B5200DD
:102F40004A6063615C4B5968FF2900D85A6080224F
:102F50005A4BE1691201584D1A60002905D0606989
:102F600001F078FC01300138FDD1E02252490B68B4
:102F70001A4080235B012B431A60802380229B012F
:102F80002B4312011A6080223E4B52004A60E361DB
:102F90004B4B5968FF2900D85A608022494B216A5F
:102FA0001201474D1A60002905D0606901F052FCFA
:102FB00001300138FDD1E02241490B681A408023DD
:102FC0005B012B431A60802380229B012B4312015B
:102FD0001A60802380225B004B602A4BD20223625E
:102FE000394B5968914200D25A608022374B616A4E
:102FF0001201354D1A60002905D0606901F02AFCE4
:1030000001300138FDD1E0222F490B681A4080239E
:103010005B012B431A60802380229B012B4312010A
:103020001A608023DB024B60174B6362284B5A689F
:10303000FF2A02D8802252005A608022254BA169C3
:103040001201234D1A60002905D0606901F002FCCD
:1030500001300138FDD1E0221D490B681A40802360
:103060005B012B431A60802380229B012B431201BA
:103070001A6080235B004B600E4BA361E4E6C04600
:10308000A40E0020006CDC021BB700000080004092
:103090003CB0004030B00040002F68590080024032
:1030A000008C864700C0024030800040001BB70003
:1030B0003C800040405973075480004054B00040A9
:1030C0006080004060B000406C8000406CB0004008
:1030D0004880004048B00040014B8000C058704715
:1030E000A40E0020F0B5C646040000B50C209046A2
:1030F0001F000E0001F0AEFB4101091A8D01691A93
:10310000C90009188901404601F0A4FB069B3F0451
:103110001A0323681743002B22DB1A4B1A4DE218BF
:1031200053425A4180235B019C461203174B624471
:103130001A60174B1A601100AB689943FBD1C0228B
:10314000231D92011A4321232660A0601360236887
:10315000002BFCDA0823E760136080BCB846F0BDA2
:103160003F2322681340B342D7D1A3681B051B0D30
:103170008342D2D1EE22E368D2021340BB42CCD1CB
:10318000EBE7C0460040FDBF00C0004000E000404B
:1031900000F000408023024A9B000343D362704743
:1031A00000800540AA23064A1B0113602F2305490E
:1031B000D360054B19605368002BFCDA7047C0469A
:1031C0000040024000B0FA00006002409A4200D283
:1031D000885470477047C046F8B557464E46454636
:1031E000DE46E0B599460A9B07009A460D9B884645
:1031F000934615000B9E9B0710D10C9B9E420DD24F
:103200009D1B14000E005D4422004B46013431002A
:103210002020B847A542F7D1B0460B9E002E27D0FC
:10322000444675195346AA1B013E985D21004B4642
:10323000B847002EF6D123002C0098460D9B9B0723
:103240000FD55B46E51A0C9BAB420AD94646984619
:1032500022004B46310020200135B8470134A845F3
:10326000F6D82000F0BCBB46B246A946A046F8BD41
:103270002C00E3E7F0B54F464646D646C0B584B0CD
:1032800098460EAB1B78129F994694460D9C109B56
:10329000119EBA0725D4002E4BD19C4200D3BFE02B
:1032A00001223A4092461F2C00D9B8E00C9A551ED4
:1032B000302201E0202C03D001342A55A342F9D852
:1032C0005246002A0DD0A6420BD9202C44D00C9A8D
:1032D000551E302201E0202C3ED001342A55B44244
:1032E000F9D1FA064DD57A053FD4002C39D10F9B80
:1032F000102B00D179E00F9B022B00D18AE0302304
:103300000C9A012413704B46002B3FD02D230C9AAE
:10331000135501340C9B6246009303974346029673
:103320000194FFF759FF04B0E0BCBA46B146A84685
:10333000F0BD012215003D40AA463A422FD04A4630
:10334000002A02D10C323A4200D0013E9C42BAD24D
:103350001F2CABD9202E27D92024FA06DAD57A05DE
:1033600003D4A3422DD0A6422BD00F9B102B32D0DA
:10337000022B20D0202CCDD030220C9B1B191A7090
:103380000134202CC6D04B46002BBFD17B070DD477
:103390003B07BFD520230C9A13550134BAE79C4252
:1033A0009FD21F2C00D881E720249AE72B230C9A68
:1033B00013550134AEE7202CACD00C9B1B19013403
:1033C0003AE0631E012C92D00F9A102A2AD0022ACA
:1033D0002FD01C00D0E7BB060ED4202C9AD00C9B1B
:1033E0001A19013478231370C4E7BB060DD478236F
:1033F0000C9A01241370BFE7202C00D18AE75822D1
:103400000C9B1B191A700134B4E758230C9A012441
:103410001370B1E70C9A603301241370ACE72024D9
:1034200000265EE7023CBA06E9D40C9A12191C0089
:10343000D8E70C9A9246534462221A709AE7C04623
:1034400010B5002800D110BD02F096F9FBE7C04688
:10345000F0B5DE4657464E464546E0B59BB09B4626
:10346000249B89469846259B0B900C9240464246E9
:1034700019009A4601F0BFFC002800D0D8E00122D4
:1034800040465146774B524201F0B0FC002800D034
:10349000CEE0012240465146734B524201F090FC6F
:1034A000002800D0C4E0002200234046514601F02D
:1034B00087FC002800D0B9E1424653460A9209939E
:1034C0008023289ADB001A400E92289A1A4201D1D2
:1034D000062326930A9A099B1600134300D0C7E0DF
:1034E000289B002500261B0500D49BE100230D939B
:1034F000269A0D9B9A4200DC9FE1D01A431E269328
:103500008023289ADB001A430023002728920D937A
:10351000279B0024BB4200D9DC1B0223289A1A40B7
:103520000E92289A134203D07B427B415B421C409F
:103530000D9B002B07D00A9809992A00330001F04F
:10354000DEFB0A900991002200234046514601F01B
:1035500037FC002805D08020000684460999614484
:103560000991289A414B0B9D13400493269B0A9A7C
:103570000293099B03940092019349465B462800FD
:103580000C9A00F08BF90400002F62D0289B2200D7
:1035900098061F23C0179843631C984649465B460C
:1035A0006530A8470D9B0025DA179C18DB0F9A465B
:1035B0005440013F01E0202D13D00AAA94461F2356
:1035C000200063440A2101355E1901F043F93031CE
:1035D000317020000A2101F03DF926000400092E77
:1035E000E9D805230693002304930A330393534633
:1035F00005970B9F029312AB009342465B464946E8
:1036000038000195FFF736FE0E9B0400002B20D0FA
:103610000C9BC51A279BAB421BD91E0022005B46A0
:10362000494620200135B8470134AE42F6D810E0B3
:10363000289B42460493279B49460393269B0B985D
:1036400002935346009201935B460C9A00F026F9D0
:10365000040020001BB0F0BCBB46B246A946A04601
:10366000F0BDC046FFFFEF7FFFFFEFFFFFF7FFFF5B
:10367000734B099F9C467800400D604401F0CEFBDF
:10368000704A714B01F059FB704A714B01F02EFBEF
:103690003B03704A1B0B1A4304000D00300011005D
:1036A0006D4B002201F019FB6C4A6D4B01F045FB9C
:1036B00002000B002000290001F018FB01F0C6FBFE
:1036C0000D9001F0ABFB674A674B04000D0001F061
:1036D00034FB0022654B01F009FB01F0B7FB644AA3
:1036E0000600644B2000290001F027FB0400300095
:1036F0000D000F9601F092FB5F4A604B01F01DFB3D
:1037000002000B002000290001F0E7FA02000B0084
:1037100006000F0001F011FB320004000D003B0019
:103720003000390001F0E2FA002210901191544B60
:103730002000290001F0E3FA0022524B01F0D6FAF2
:1037400002000B002000290001F0D9FA00224E4BA4
:1037500001F0CCFA02000B002000290001F0CFFAA2
:103760000D008021040032003B000020C90501F05B
:10377000B4FA02000B002000290001F0B7FA0200A1
:103780000B001098119901F0BAFA0022314B01F0A8
:10379000ADFA3E4B0F9C9C4664440022230501F089
:1037A000CCFA05000E0002000B000A98099901F0FE
:1037B00007FB00280AD00D9B2800013B31000D9328
:1037C0000022304B01F09BFA05000E00C6270D9930
:1037D0002B0063318F42BF4128997F42043709058E
:1037E00000D495E6334300D182E6099C284A2100A3
:1037F000284B0A9801F0F2FA002808D00022210094
:10380000254B0A9801F0DCFA002800D070E6269BD0
:10381000002B00D17CE60E9B5A1E9341269AD31AA8
:10382000269375E6002304270D9371E643460A9319
:1038300080231B065344099342E6002326935FE648
:1038400001FCFFFFFB799F501344D33FB3C8608B4B
:10385000288AC63F0000F03F0000F83F61436F63D5
:10386000A787D23F71A379094F930A400000E03F38
:103870001655B5BBB16B0240EF39FAFE422EE63F5A
:1038800000002C400000244000001840FF0300000E
:103890002D431CEBE2361A3F80842E41F0B54E4694
:1038A000DE4657464546E0B597B09946209E219F93
:1038B000229B8346984607910C923B0032003000D1
:1038C000390001F098FA002800D0A9E10122300067
:1038D0003900CA4B524201F073FA002800D0E1E0EF
:1038E000012230003900C64B524201F07FFA002815
:1038F00000D0B7E0002230003900C24B01F076FA68
:10390000002800D099E0002230003900BE4B01F0C1
:1039100057FA002800D090E0002200233000390040
:1039200001F04EFA002800D0B1E000230D93249B53
:103930005B0501D40623984608AB9C461722002459
:1039400030234146624404E0013413550139202CF0
:1039500001D00929F8D888463000390001F076FAFC
:103960004346DA00A94B05009B181A685B68089269
:10397000099301F053FA02000B003000390001F006
:10398000ACF9089A099B01F0D8F90A900B9101F063
:1039900081FA824601F03EFA02000B000A980B9968
:1039A00001F09BF900229A4B0A900B9101F01EFA4C
:1039B000002800D1C0E001239C46E244504601F0BB
:1039C00029FA02000B000898099901F0FFF9002874
:1039D00002D000239A4601354346002B6AD008AB3B
:1039E00017269C4608956644554614E001235B4221
:1039F00043440A2128009A4600F02CFF013430315C
:103A00003719397028000A2100F024FF092D00D849
:103A1000D0E0D0460500202CE8D10EAB9846032319
:103A2000249A1340012B00D196E02023249A01937D
:103A30000392239A434602921EE0249B5846049325
:103A4000239B00960197039343460C9A0293079990
:103A50004B46FFF7FDFC17B0F0BCBB46B246A9468B
:103A6000A046F0BD249B5B070ED40322694B24992A
:103A70000192039123990291009358464B460C9A68
:103A80000799FFF7A9FBE6E70422634BEFE73B004A
:103A900032000020002101F020F9012306000F0070
:103AA0000D9344E7249B0393239B029304230193E8
:103AB0005A4BE1E7280001F0B1F902000B00300099
:103AC000390001F00AF9524B002206000F0001F004
:103AD00077F90EAB984600280AD100223000390051
:103AE0004B4B01F083F9002802D1EB0700D50135DB
:103AF000202C94D008AA94461723280063440A2156
:103B000001341E1900F07EFE3031280031700A2188
:103B100000F078FE051EEBD10323249A1340012BFD
:103B20001BD0202C00D180E70D9B002B35D02D22FF
:103B30004146631C0A5579E700220A980B99344BD9
:103B400001F03EF9002800D046E75346002B51D142
:103B500001239C46E2443FE72024239B002BE0D036
:103B60000D9B002B03D1249A0C33134202D0239BCC
:103B7000013B2393239BA342D3D908AB9C46172236
:103B800030236244202C00D14FE723990134135590
:103B90008C42C6D0202CF8D147E7249B5B0724D465
:103BA000249A2300120700D440E720224146013323
:103BB0000A553BE75746089D202C00D12DE72200EF
:103BC00030214046002F09D00132B154202A00D1C3
:103BD00023E7D3431B191B18002BF5D10EAB9846D6
:103BE0002E234146541C8B5482E72B224146631CF2
:103BF0000A551BE7DB0700D4EEE6A9E7FFFFEFFF5E
:103C0000FFFFEF7F65CDCD4165CDCDC1986C001034
:103C10000000E03F9C6A0010A06A0010AC6A00102F
:103C2000249B0393239B029303230193004B23E7DD
:103C3000A86A0010F0B5DE464E4657464546E0B548
:103C40009FB01C00289B91460993C94AC94B8B46DB
:103C500008901A60002900D118E2002320789A46C3
:103C6000002800D11AE226001D005C460AE02A0066
:103C70006F1C4B46089D2100A8473D000136307857
:103C8000002870D02528F2D110239B46083B9A4685
:103C9000043B9846023B00219C46721C107816009B
:103CA0000300203BDBB2102B03D8B34F9B00FB5823
:103CB0009F460300303B092B32D900230A932A2860
:103CC00068D0002398462E283ED00300683BDBB224
:103CD000122B1CD8A94A9B00D3589F4601230132BE
:103CE0001943DBE7634601321943D7E74346013204
:103CF0001943D3E75B4601321943CFE753460132FC
:103D00001943CBE780235B00707819430136030029
:103D1000253BDBB2532BAAD8994A9B00D3589F4628
:103D200000270300B800C01901364000C0183378DE
:103D300030381A00303A0700092AF3D90A901800DF
:103D4000002398462E28C0D180237078DB001943C9
:103D50000300303B721C092B00D8A1E12A2800D1B6
:103D6000B2E11600B1E7A346AA462C00D14503D81C
:103D700001235B424B449A464B465246594600202B
:103D8000089DA84720001FB0F0BCBB46B246A9461C
:103D9000A046F0BD099B40CB0A96002E03DB50786D
:103DA0000993561C8DE72838014370420A90099305
:103DB0005078561C85E7782800D1DFE1582800D1DB
:103DC0004CE26F2800D14FE3622801D100F030FCB3
:103DD00010230A009A430B92692801D000F0A9FC35
:103DE0000A230C934B0500D5D0E10B9A80231100D8
:103DF0009B0019408B461A4200D0A1E2802311009B
:103E00005B0019408A461A4200D0B6E313005B06F5
:103E100000D5EDE2130009991B0601D400F076FCF1
:103E200008C91BB2D8171A18424092B2099193469A
:103E3000DA0F1292002B09D1802310220B99DB009C
:103E40000B4091430B91002B00D0E4E20B9A6123CD
:103E5000920600D541230EA91F228C46DBB2624494
:103E60000A3B5F461395A34655460C9CB2460D93FC
:103E700016000AE03033DBB201357355A74200D299
:103E8000EDE2202D00D1EAE207002100380000F029
:103E9000E1FCCBB20929EDD90D9A94466344DBB21B
:103EA000EAE780239B007078194301362FE770788A
:103EB000682800D1CDE180230136194327E77078C7
:103EC0006C2800D1BFE180235B00194301361EE757
:103ED000462800D19BE10722099B049107339343B5
:103EE0000A9A19000392424602920CC9089800925D
:103EF000019309912A004B462100FFF7CFFC0136C0
:103F00000500BCE62A006F1C4B46089D21002520B9
:103F1000A84701363D00B2E68B0700D4ADE1099B0E
:103F20002A009A466B1C9846534601CB21009A46BC
:103F3000089F4B46C0B2B8470A9B9C466544012B7C
:103F400000D886E2089B4746B04626004C46994674
:103F50003A002300013731002020C847AF42F7D193
:103F6000A1465346340046460993013687E6C046CB
:103F7000353C00101C0F0020B46A0010F86A0010D5
:103F8000446B0010099B04CB9B4643460992002BCF
:103F900000D1C6E013789C46002B00D1BDE3434618
:103FA000013B099A0133D0180A9F130001E08342B4
:103FB00003D05A780133002AF9D1099A0A979B1A3B
:103FC0000B9380230A00DB001A400C92194204D0A4
:103FD0000B9B434501D943460B9302231A000A4029
:103FE0000D920B4200D187E16046002800D168E1C4
:103FF0000C9B002B00D10DE1A844C246099B5746FB
:104000005B1B9846089BB2462A0026004C46994600
:1040100009E023003100551CC8474346585D00287D
:1040200000D126E12A009742F3D1A1463D00340099
:1040300056460D9B002B00D043E15B4601360993A9
:104040001DE6099B1A0008CA9246002B48D021227F
:1040500011438B460EA884461F2161440995002216
:104060000F27A4460D0002E0202A0CD00B003C00D4
:104070001C4020003730092C00D807380132A854E2
:1040800019090F2BF0D86446099D32E0DC4B2078EB
:10409000089300239A46002800D0E4E5002465E652
:1040A000434606000A9F9800C0180132400080195C
:1040B0001678030030003038303B0928F3D930003F
:1040C000984616000A9700E6099B023604CB9046F4
:1040D000D2434046D2171040804609933078F4E529
:1040E00010220800904311321043834600224905F4
:1040F000B0D55B46069308230593434604931023EB
:1041000003930023029316AB019200932A004B46BF
:1041100021000898FFF7AEF85346050001360993D1
:10412000ADE513789C46002B00D1F7E202235B42F9
:1041300037E7202302009A43472A04D180231B013A
:10414000194302239843452801D12023194307220C
:10415000099B0491073393430A9A1900039242463C
:1041600002920CC908980092019309912A004B46CB
:104170002100FFF76DF90136050080E510230C934F
:104180000C230A009A430B924B0503D501230B9A8B
:104190009A430B92692800D127E6642800D124E6CF
:1041A0000B9A802311009B0019408B461A4200D0C5
:1041B00066E1802311005B0019408A461A4200D054
:1041C00039E213005B0600D53CE113001B0600D466
:1041D000A6E2099B04CB1204120C934609935B469A
:1041E000002B00D09AE10B9A1033110099430B91E8
:1041F000520500D492E100239A460B9B06930A9B3A
:104200000593434604930C9B039300230CE1202366
:10421000194360E6099B0A9A5B1B98464B469146F8
:104220001F00B2462600089C2A003B003100A04730
:1042300043460135585D0028F6D14A463400B94658
:1042400056460A92F5E6C0239B00B0781943023621
:104250005DE5C023B0781943023658E50C230A0007
:104260009A4314331A43103B0B920C934B058DD495
:1042700096E7A14634005646DBE60A9A012A00D8A2
:1042800053E26B1E9F18089BB04626004C46994689
:104290002A002300013531002020C847BD42F7D154
:1042A000A14634004646099B3A0001CB21009846BE
:1042B0007D1C4B46089FC0B2B84743460136099360
:1042C000DDE40B9B0A9AA8469A4200D8B5E69446CC
:1042D0006544ED1A089B4746B04626004C46994671
:1042E0003A002300013731002020C847AF42F7D100
:1042F000A14634004646A0E60B9A0A99531C914207
:1043000000D814E24B199B1A1F00089BB2462600E6
:104310004C4699462A002300013531002020C84729
:10432000BD42F7D10A9BA14601330B93099B340090
:104330001B7856469C466046002800D058E67CE62E
:104340000722099B07339343013294469C446246FB
:104350005F6809921A68FB171093119310981199CE
:10436000030053400E930B007B400F9394460E9A2C
:104370000F9B121A8B410E920F93FB0F6246129302
:1043800000233A439B463DD00B9A6123920600D509
:1043900041230022DBB20EA90A3B8C4692460D93C4
:1043A00043461F3262441395159655460E9E0F9F45
:1043B000A24690460C9C14930CE03032D2B2434695
:1043C00001355A55BB4500D18AE1202D00D18AE143
:1043D00006000F00220000233000390000F07CFAB4
:1043E000D2B2092AE9D90D9B9C466244D2B2E6E7D3
:1043F000FF23099904C913401A00099117E5C04623
:10440000D53100100B9A1033110099430B915205CE
:10441000BAD500239A460B9B06930A9B0593434605
:1044200004930C9B0393129B02935346019316AB88
:104430002A00009321004B460898FEF71BFF013627
:1044400005001CE4FF22099B02CB11408B46099317
:10445000C5E65346454609930136FFF710FC56461C
:104460005C46AA46139DD6E708230C930B910B9943
:10447000642800D084E60B9B5B0500D586E6B4E497
:104480000722099B07339343013294469C446246BA
:1044900009921A685B6810009B4613005A46134342
:1044A00007D10B9A1033110099430B91520500D597
:1044B000A1E60B9A6123920600D541230022DBB2CC
:1044C0000EA90A3B8C4692460D9343461F32624426
:1044D0005F461295A34655460400B24690460C9E90
:1044E00013930DE03032D2B2434601355A550023C2
:1044F000BB4200D100E1202D00D100E104000F00FB
:10450000320000232000390000F0E6F9D2B2092A77
:10451000E8D90D9B9C466244D2B2E5E70B9A612331
:10452000920600D54123DBB20EA90A3B1F228C461E
:104530000D93230062445C461295170055469B4636
:10454000B2460C9E08E03033DBB201357B55B442F5
:104550000ED3202D0CD004003100200000F07AF999
:10456000CBB20929EFD90D9A94466344DBB2ECE74C
:1045700056465C46AA46129D3FE6099B1A0008CAA9
:10458000D91713925A184A409246DA0F1292002B0A
:1045900008D1802310220B99DB000B4091430B9133
:1045A000002B2BD10B9A6123920600D541230EAA32
:1045B0001F279446DBB20A3B0D9567445D4609937D
:1045C000A3465446B2460C9E08E03033DBB20135B8
:1045D0007B55B4420ED3202D0CD0040031002000B6
:1045E00000F038F9CBB20929EFD9099A944663440F
:1045F000DBB2ECE756465C46AB460D9D0B9B2A00B2
:1046000006930A9B21000593434604930C9B08984C
:104610000393129B013602935B46019316AB009302
:104620004B46FEF727FE139B05000993FFF727FB78
:1046300002230C931AE7099B04CB92461293002A9B
:1046400008D1802310220B99DB000B4091430B9182
:10465000002B2BD10B9A6123920600D541230EAA81
:104660001F279446DBB20A3B0D9567445D460993CC
:10467000A3465446B2460C9E08E03033DBB2013507
:104680007B55B4420ED3202D0CD004003100200005
:1046900000F0E0F8CBB20929EFD9099A94466344B7
:1046A000DBB2ECE756465C46AB460D9D0B9B2A0001
:1046B00006930A9B21000593434604930C9B08989C
:1046C0000393002302935B46019316AB00934B4682
:1046D000FEF7D0FD129B050009930136FFF7CFFAD4
:1046E000B44200D871E6149B54460E960F97AA4622
:1046F0009846159E139D8EE6A64200D8FBE6139BB6
:1047000056469846AA465C46129D76E508C9D817D3
:104710001A1842400991FFF78AFB00230B9350E4DB
:10472000099B04CB9346099359E52F00BBE50B93F6
:1047300001E6063B0C939AE60EB4012210B585B053
:1047400007AC08CC01000094524204480394FFF7E0
:1047500071FA05B010BC08BC03B01847CD31001089
:1047600010B5094A0300146884B0002C08D0012257
:1047700000910648524203A9A047012004B010BD91
:1047800001F04AF80020F9E71C0F00204134001026
:1047900001480421014B1847B0020020C147001016
:1047A000142310B50100188804331B88984710BDE6
:1047B000162310B50100188802331B88984710BDD6
:1047C000F8B54746CE4680B50F1E19D0142399463A
:1047D000043304000025012698464B4618884346BA
:1047E00021681B88984701C4431E98410135404207
:1047F0000640AF42F1D13000C0BCB946B046F8BD6A
:104800000126F8E7124A936F9B0815D29066D1668D
:10481000002905D0FFE7FFE7FFE7516F106F7047F2
:1048200004B580210906C2175140002800D0C843B2
:1048300001F07EFF002104BDF0B5146E556E576F78
:10484000166FFFF7E3FF1466556657671667F0BDEE
:10485000000000D0114A936F9B0813D21066516676
:10486000002905D0FFE7FFE7FFE7516F106F7047A2
:1048700004B5002801D00020C04301F059FF0021F9
:1048800004BDC046F0B5146E556E576F166FFFF736
:10489000E5FF1466556657671667F0BD000000D047
:1048A00094464E4A926F9208624601D230E0C0466A
:1048B000F0B54A4EB56F6D08FCD3346E756E776FE8
:1048C000366F00F025F89446444A146655665767DB
:1048D00016676246F0BDC0469446404A926F920801
:1048E000624601D258E0C046F0B53C4EB56F6D0847
:1048F000FCD3346E756E776F366F00F04DF89446CA
:10490000364A14665566576716676246F0BDC0465C
:10491000002B24DB11D000293EDA00B5C943404208
:1049200000D1013100F038F8C943404200D10131D3
:10493000DB43524200D1013300BD002AEBD10028F5
:1049400001D1002905D00020C90FC90701D1C043FA
:10495000410800B501F0D4FE0022002300BD00B5DF
:1049600000290ADBDB43524200D1013300F014F886
:10497000C943404200D1013100BDC943404200D18A
:104980000131DB43524200D1013300F005F8DB4333
:10499000524200D1013300BD002923D1002B18D190
:1049A000002A0CD0BC460D4F38667A6600210023E1
:1049B000FFE7FFE7FFE77A6F386F67467047002829
:1049C00001D00748010000B501F09AFE0022002343
:1049D00000BD02000B00002000217047000000D045
:1049E000FFFFFFFF002B00D0BFE0130C28D1002AEF
:1049F000E7D080B4114F39667A66FFE7FFE730B43D
:104A0000040C7B6F396F1B0423433B667A66FFE718
:104A1000FFE7FFE7C04684B27B6F3D6F1B04234373
:104A20003B667A66FFE7FFE7C04600232C042D0CA7
:104A30007A6F386F00196941B0BC7047000000D030
:104A4000F0B594460025140E01D112020835140F5A
:104A500001D112010435940F01D192000235D40F17
:104A600001D152000135D40B0134254F7C66254C11
:104A70003C660E0C93B2FFE7FFE7FFE73C6F66432F
:104A8000360C7703BE467343DF0B5B04C01AB94193
:104A9000130C7343DB18C91ACE086643360CB644B0
:104AA00093B273431F0F1B01C01AB941130C734318
:104AB0001F0B1B05C01AB941860D8F023E4366438A
:104AC000360C092D24DB520A7243801A7703460AFA
:104AD0006643360C16235B1BDE40DF40BF1964467D
:104AE0006643821B7046043506330100D940A84056
:104AF000C01900D30131A24206D20023F0BD00004C
:104B0000000000D0FFFFFFFF121B0130F3D3F1E7DD
:104B100009277F1BFE406446A2B27243801A00D26E
:104B20000139220C7243130C1204821A99410B00B2
:104B30007046043513370100F940A840801900D3AE
:104B40000131002B02D1A2420AD2F0BD013000D3C4
:104B50000131121BFAD2013BF8D1A24200D2F0BDC2
:104B6000013000D30131121BF7E7F0B51C0C00D067
:104B700080E00CB400251C0A04D11B02160E33433E
:104B8000120208351C0B04D11B01160F334312010E
:104B900004359C0B04D19B00960F334392000235E1
:104BA000DC0B02D192185B4101351C00971864415F
:104BB0000134464F7C66464C3C660E0CFFE7FFE72F
:104BC000FFE7C0463C6F6643360C7703BE4697B29C
:104BD0007743C01B00D20139C01B00D201399FB2FC
:104BE0007743C91BC91B170C77437E04FF0B801B3F
:104BF000B941CE086643360C0C2D33DBB644120B9C
:104C00001F053A431B0B97B27743C01B00D20139F3
:104C10009FB27743C91B170C77433E043F0C801BA0
:104C2000B941860D8F023E43664329277F1BFE4014
:104C30000C3D7746AF40BF1930BCA2B2ABB2724355
:104C40007343801A9941220C7243130C1204801A88
:104C5000994102000B000137001BA941F9D2781ECF
:104C60000021F0BD0C277F1BFE4077467F0BAF4035
:104C7000FF19E0E700245D1C07D0144F7D663966FC
:104C8000FFE7FFE7FFE7FFE73C6F95B29EB26543A2
:104C90006643401BB141150C1E0C65436643360448
:104CA0002F0C3E432D04401BB141994204D2020017
:104CB0000B0020000021F0BD01D19042F7D3801AF3
:104CC000994101349942F2D3F6E70000000000D088
:104CD000FFFFFFFF48404140484018B41B4B5B6852
:104CE000FC46019308BD04DF734F001018B4174B46
:104CF0001B68FC46019308BD00DF7D4F0010944601
:104D0000134A926F920809D2624618B40F4BDB68BF
:104D1000FC46019308BD0CDF355200100C4AF0B57B
:104D2000146E556E576F166F6246FFF7EEFF084A16
:104D30001466556657671667F0BD18B4034B9B6839
:104D4000FC46019308BD08DFD9500010400C00203C
:104D5000000000D0FFB550404240504059404B4009
:104D6000594000E0FFB5154F4C00640D03D0BC4224
:104D700004D10C0314D80020090D09055C00640D52
:104D800003D0BC4204D11C030AD800221B0D1B0512
:104D900001264B4009D44B4003D58B4200D18242BF
:104DA000FFBD9942FCD19042FFBD0B43DB1803438A
:104DB0001343F5D0C9434918FFBD0000FF070000A9
:104DC00000B5FFF7CFFF804100BDC04600B5FFF73B
:104DD000C9FF01D9002000BD012000BD00B5FFF7CB
:104DE000B9FF01D9002000BD012000BD00B5FFF7CB
:104DF000B1FF804100BD012040054A00121804D8CF
:104E00005A00121801D80020704701207047002076
:104E1000704700000021002805D17047C1174840A5
:104E2000401AFAD0C90713B5064B1B6898470CBC4B
:104E3000441CA2401005120B0349091B0905194324
:104E4000114310BD281100201F04000010B54C00B4
:104E5000620D8023D218DB00D21A5B057E2A10DD9A
:104E60009E3A13DACC170903490819435242D1403C
:104E7000640001341532202A05DAD040084360432B
:104E800010BD002010BD0846604310BDC80FC018FB
:104E9000013810BD18B4044B5B6AFC46019308BD91
:104EA00024DFE55300100000400C0020132370B5F0
:104EB0001D78012D15D010DD1C48FFF779FC1C4C26
:104EC00001008022200000F071FB022D06D019485D
:104ED000FFF766FC184B186070BD154C174BA364A8
:104EE000F5E7164B124C23606360A360E360236117
:104EF0006361A361E36123626362A362E36223638C
:104F00006363A363E36323646364A364E36423656B
:104F10006365A365E36523666366A366E36623674B
:104F20006367A367E367A364D1E7C0465344000007
:104F3000400C00204C33000028110020414F00108D
:104F400007B5604601880A0A0230DF2AFAD1C9B2E1
:104F5000820804D3028840880004104300E00068FF
:104F6000014A5050039007BD400C00200FB403BC11
:104F70000CBCF0B50124E407634000E0F0B50C0D73
:104F8000CF0F661E3605891B640503D3C943404213
:104F900000D30131640D03D0661CF60A07D0E41B70
:104FA00000207F00791C89078912803C24031D0D95
:104FB000DF0F6E1E36059B1B6D0503D3DB4352428C
:104FC00000D301336D0D03D06E1CF60A07D0ED1B24
:104FD00000227F007B1C9B079B12803D2D032F1B13
:104FE000661B58D4A446202E46DA20371400BC4055
:104FF0001D00BD40F24033412A4380185941CB0F78
:1050000005D0C943C0430022644250415141624629
:105010004D0D28D10D0D07D100281FD02419404176
:105020004941013A0D0DF9D0640006D3013000D397
:105030000131002C01D140084000013A0BD4941CEE
:10504000E40A04D112051144DB071944F0BDD90765
:10505000204B194300E0D9070020F0BD0029DDD125
:10506000002CDBD1F0BD0132C6074008CD07284334
:105070004908002EE1D0D9E73C2E29DA203E4037FE
:105080001400BC4000D00124F24014431A00BB407D
:105090001C43D317ACE7AC46202F08DA20360400B7
:1050A000B4400D00B540F84039412843A5E73C2FF6
:1050B0000CDA203F40360400B44000D00124F84010
:1050C00004430800B1400C43C117EAE7100019007F
:1050D000002494E70000F07FF0B50C0D661E360545
:1050E000891BE60A6405640D02D0651CED0A04D034
:1050F000002001210905803C2403A4461C0D671EE5
:105100003F05DB1BE70A6405640D02D0651CED0A50
:1051100004D0002201231B05803C24037740644413
:1051200097B484B296B27443070C7E43150C6F4358
:1051300080B26843361802D3012000043F183004BF
:10514000350C00197D41844688B29AB250430C0C4C
:1051500062431F0C7C438EB27E43921902D3012618
:105160003604A4191604170C3618674101BC81B225
:105170009AB25143040C62431B0C5C4380B2584307
:10518000121802D30120000424181004130C401834
:1051900063412D185E410020474106BC88B293B29E
:1051A00058430C0C6343120C544389B251435B18AF
:1051B00002D301210904641819041A0C0918624168
:1051C0006D1856410020474118BCF902720D114379
:1051D000F0026A0D1043ED020A0D03D16D19404132
:1051E0004941013B124E9B1B7600B3420ED26D002B
:1051F00007D30130002671416646354301D140088E
:1052000040001B05C918E4072144F0BD0BDA013347
:1052100006D1013004D101314F0D01D04908F2E728
:10522000E1070020F0BD013631050020EBE700006A
:10523000FF030000F0B51C0D671E3F05DB1BE70AEE
:105240006405640D02D0661CF60A04D00022012316
:105250001B05803C2403D0252D060026F6432E6630
:105260001E096E66CE0FF619B44649004F0D02D0E6
:105270007E1CF60A03D000200021403F3F033E1B66
:10528000B600B444013F7F05C91B49082E6F0136A3
:1052900076089C02950D25437543ED137543AD13B8
:1052A00001356D10F603761B0CB4CC02450D2C4372
:1052B000A2B2B3B25A43270C7B43350C6F43A4B25E
:1052C0006C431B1902D3012424043F191C041D0C38
:1052D000A4187D4124196D41009A91B2ACB261438A
:1052E000170C7C432B0C5F4392B25A43A41802D391
:1052F00001221204BF182204230C52187B41019C86
:105300006C431B19520ED9010A434401A01A81B201
:10531000B2B2514303145A43360C734387B27743F6
:10532000D617D21900277E4136049B191704160C94
:105330007F185E417316ED18F30100268033754126
:10534000A90F06D16400690AE8055B0A184309D26F
:105350002FE00422944480337541A90AA8059B0AD2
:10536000184326D3404149412404009A019B0D0073
:105370005543641B4343E41A95B286B27543170C38
:105380007E43030C5F4392B25A43B61802D3012204
:105390001204BF183204330C52197B4152429C4113
:1053A000002C02D40022013051414008CA071043AA
:1053B000490802B06246D7079210084BD218084B32
:1053C0009A4203D212058918C919F0BD0020002A9B
:1053D00001DC3900F0BD01331905F5E7FD030000DC
:1053E000FE070000002200B5203200F004F808009B
:1053F00000BD000000220B150AD410B5944600F041
:1054000031F81414013400DA0021CB17144C204772
:105410000020002170476244343A0CD40C2A07DA89
:1054200004009140904052422032D440214310BDAC
:10543000D843D94310BD203207D40C469440524281
:1054400020321141D040204310BD0800C91720323E
:1054500003D452422032104110BD1800190010BD73
:10546000175400100A0DCC0F531E1B05C91A520504
:1054700003D3C943404200D30131520D03D0531C22
:10548000DB0A07D0121B00206400611C8907891207
:10549000803A1203014BD21A70470000FF0300004C
:1054A00051434343C9188C46110C83B24B4310B48B
:1054B000040C614392B280B2504362431C041B0C43
:1054C000001910BC59411304120CC0185141614419
:1054D00070470000132310B512481C78FFF768F9D5
:1054E0000100012C0AD003DD80220F4800F05EF895
:1054F0000E48FFF755F90E4B186010BD0A4C5422A8
:10550000200000F053F80B4B6365A365E365236649
:105510006366A366E36623676367A367E367236243
:10552000E361E5E753460000400D00204C330000E6
:10553000281100203955001007B5604601880A0A75
:105540000230DF2AFAD1C9B2820804D30288408827
:105550000004104300E00068014A5050039007BD6A
:10556000400D002010B5040000F0F6F9002804D02A
:10557000034B04199C4200D810BD0248FDF730FCD3
:1055800000000420E86C001010B500F0EFF910BD29
:1055900001480421014B1847C0020020C1470010F8
:1055A000014B1B6818470000C0020020014B5B68DC
:1055B00018470000C0020020030010B508001100C9
:1055C0001B68984710BDC046F0B546464F46D646C4
:1055D000C0B5437C80460E001700002B46D0002A41
:1055E0003FDD4B1E9946244B0125002400209A469E
:1055F0000DE04B461B5D0D3B5A425341325DDBB221
:105600000A2A0BD02B00013401359F421ADD002CF1
:10561000EFD14346325D1B7C0A2AF3D1002BF1D136
:10562000A04204DA4346211A1B68301898474346C3
:1056300050461B6802219847013428002B00013591
:105640009F42E4DC874204DD4346391A1B68301868
:105650009847F619013E33780D3B5A425341424672
:105660001374E0BCBA46B146A846F0BD0368110009
:1056700030009847F5E7C0465C6D0010F0B557461E
:105680004E464546DE461C00D023E0B51B061F688B
:10569000344B83B006000D00180001A991469A46CC
:1056A00001F04EF88046002808D1019B7FB29F424E
:1056B00004D0504601F04CF8012398466B1C03D1EE
:1056C000300000F0A1FC0500002C27D1264F274B0D
:1056D0001C68002C18D04B46002B21D1244B994636
:1056E00002E0E468002C0FD02368002BF9D04B4671
:1056F0001B68002B01D0A342F3D120002A00310007
:10570000B847E468002CEFD14346002B25D103B005
:10571000F0BCBB46B246A946A046F0BD154FD6E741
:10572000134B99460A239B4602E0E468002CEBD019
:105730002368002BF9D04B461B68002B01D0A342F5
:10574000F3D12A0031002000B8475A466B462000AA
:105750001A7101A90122B847E7E7504600F0C8FFD7
:10576000D5E7C046200B0020C95500100C0F0020C3
:10577000140F0020B9550010F0B5CE46474680B54D
:1057800083B06B46DE1CD02330701B061C681F4B99
:10579000804601A91800994600F0D2FF071E20D0CC
:1057A0001B4B1C68002C28D01A4D02E0E468002C2A
:1057B0000FD02368002BF9D02B68002B01D0A34217
:1057C000F4D1200001223100FFF7FEFEE468002C36
:1057D000EFD1002F11D1404603B0C0BCB946B0464E
:1057E000F0BD019B64B29C420BD0484600F0B0FF74
:1057F000074B01271C68002CD6D1484600F078FFE3
:10580000E9E7034B1C68002CCED1E4E7200B002015
:105810000C0F0020140F002070B5040000F0F4FB02
:1058200000230100050001222000FFF727FF084B9D
:105830001C68002C06D06368002B05D09847E468EC
:10584000002CF8D1280070BDE468002CF3D1F9E7F2
:105850000C0F00200A4A1368002B05D10CE01A0037
:10586000DB680C32002B07D09842F8D1002902D116
:10587000C3681360C16070470029FCD01060FAE76C
:105880000C0F002010B500F043F810BDF0B50D1E50
:1058900015DD0E4B0D271A680D4B4519D3185942CB
:1058A0004B410C495B005E5E20210478A64207D084
:1058B00093691942FCD101301460A842F5D1F0BDC2
:1058C00093691942FCD11760F2E7C04644110020E9
:1058D0000080FCBF4011002030B504000D1E12DD19
:1058E00000201021094B013C1A689369194208D124
:1058F000013093691942FCD1136823548542F4D1D5
:1059000030BD0028FCD103204042F9E744110020BB
:10591000E12110B50B4B0C481B780C4B49021B784E
:105920000B4B1860FDF758F902210020FCF75AF9DB
:1059300002210120FCF756F901210648FFF78AFFF2
:1059400010BDC046BC6D001000400340C06D00108B
:1059500044110020D002002010B5034B010018684C
:1059600000F00EF810BDC046E402002010B5034B55
:105970000100186800F0C2FD10BDC046E40200201E
:10598000F0B54E464546DE465746E0B50D000B35B0
:10599000060083B0162D22D8102900D9B2E000F0FD
:1059A000B1FA102518230220CC4FFB181A005C68AE
:1059B000083A944200D1B5E0032362689A43130089
:1059C000E268A168CA6091600122E318596830005A
:1059D0000A435A6000F09EFA2000083095E0072341
:1059E0009D4300D58EE0A94200D98BE000F08AFAF1
:1059F000FC235B009D4200D2A7E1680A00D18BE046
:105A0000042800D97AE138239846A809804439301F
:105A1000C100B24F79184C680839A1420ED0032357
:105A20009C4604E0002ACBDAE468A14206D0624634
:105A3000636893435A1B0F2AF4DD40463A003C69E1
:105A40000832944200D178E0032361689943894683
:105A50000B00491B0F2900DD7BE17A613A610029C7
:105A6000B2DA80229200914500D30FE15909DA0899
:105A700001238B40D2007968D2190B4391687B6077
:105A8000E260A1609460CC60012182109140994253
:105A900059D80B4205D103229043490004300B42F0
:105AA000FBD003239846C3009946B944CC468246AE
:105AB0006346DC68A44507D12CE1002A00DB35E110
:105AC000E468A44500D125E14246636893435A1B2C
:105AD0000F2AF2DD01208046611905436560A06848
