:020000041000EA
:1000000000B5324B212058609868022188439860DF
:10001000D860186158612E4B002199600221596106
:100020000121F02299502B49196001219960352056
:1000300000F044F80222904214D00621196600F024
:1000400034F8196E01211966002018661A6600F04E
:100050002CF8196E196E196E052000F02FF8012189
:100060000842F9D1002199601B49196000215960AB
:100070001A491B48016001219960EB211966A021F2
:10008000196600F012F800219960164914480160C1
:100090000121996001BC002800D000471248134993
:1000A000086003C880F30888084703B5996A0420EC
:1000B0000142FBD001200142F8D103BD02B5186610
:1000C0001866FFF7F2FF186E186E02BD00000240BE
:1000D000000000180000070000035F00212200005C
:1000E000F4000018222000A00001001008ED00E03C
:1000F00000000000000000000000000074B24E7A12
:1001000000200420F7010010C3010010C5010010F9
:10011000C1010010C1010010C1010010C101001097
:10012000C1010010C1010010C1010010C701001081
:10013000C1010010C1010010C9010010CB01001065
:10014000CD010010CD010010CD010010CD01001037
:10015000CD010010CD010010CD010010CD01001027
:10016000CD010010CD010010CD010010CD01001017
:10017000CD010010CD010010CD010010CD01001007
:10018000CD010010CD010010CD010010CD010010F7
:10019000CD010010CD010010CD010010CD010010E7
:1001A000CD010010CD010010CD010010CD010010D7
:1001B000CD010010CD010010CD010010CD010010C7
:1001C00000BE00BE00BE00BE00BE00BE00F04BF888
:1001D000103800BEF2EB8871105400103454001037
:1001E0003402001090A31AE700202149086006C8D5
:1001F00081F3088810471F48006800282FD10DA4FC
:100200000ECC002902D000F012F8F9E71A491B4A77
:10021000002000E001C19142FCD1194988471949E9
:1002200088471949884700BEFDE701C901C29A42C3
:10023000FBD3704734540010C0000020EC0A0020AB
:10024000605E00100000042000000420605E0010CA
:1002500000100420001004200000000070470B482C
:1002600003F04EF90047EFF30580C0B2704700007D
:1002700008ED00E0000000D0F00A0020741000201B
:10028000191A00100D0300103D1B001057560000F6
:1002900006005250ABB3605380530010060052501A
:1002A000861C030290530010060052505422A29D57
:1002B0009C53001005005250DE65F468605E00102B
:1002C000F8B5C04610B5064C2378002B07D1054B76
:1002D000002B02D0044800E000BF0123237010BDB2
:1002E000F00D00200000000058500010044B10B525
:1002F000002B03D00349044800E000BF10BDC046F6
:1003000000000000F40D002058500010F0B5C64663
:1003100000B504F067F9AA23E12224485B005202E9
:10032000C25008220433224CC25001320433C2505E
:10033000046000F07FF91F4BFF2502229E5E002221
:100340009B5E1D4A9C4610230D212020884602E01A
:10035000A1690B4210D091690B42F9D191690B420E
:10036000FCD117682F40BE4213D0A1690842FCD1CE
:100370002760A1690B42EED1A1690B42FCD127682D
:100380002F40BC450BD0202091690842FCD117605A
:10039000DAE7A1690842FCD141462160E5E7202067
:1003A00091690842FCD10D211160ECE7D80E0020C4
:1003B000008003406810002000400340F0B5DE4696
:1003C0004E4645465746E0B5060083B00A2003F086
:1003D00079FF81461E2003F075FF754B754AF318AF
:1003E00090465A42534183465B00019341240022C8
:1003F00020230D207049019D002A5FD16F4A525F72
:10040000A24262D0B2691342FCD122000D3A34609C
:10041000544262414C780131D2B2002CECD1042319
:100420009A46330020254E469946654C0A22002103
:10043000300003F065FF0A270AE043461B680A22E2
:100440003100181D00F0F4F902284FDC002F0CD009
:1004500043461B68181D00F0D1F90028EDD101209A
:10046000013F00F009FF002FF2D101235B429C46BF
:10047000E2445346002BD9D14B46B1461E004F4BA8
:1004800000255D5F4324002120220D274D484C4B61
:1004900000291FD1AC4224D099690A42FCD11C60CA
:1004A000017801300D394C4261410478C9B2002C09
:1004B000EED1FA20C00000F0DFFE97E7B2691342E8
:1004C000A3D0B2691342F9D19FE7B2691342FCD1BC
:1004D000306097E799690A42E1D099690A42F9D1F7
:1004E000DDE799690A42FCD11F60D5E7300004F0CE
:1004F0001FFC330002003449584602F0CDFF5B4632
:100500001978002916D02D4B5A460020185E0D2769
:100510000023002B3AD188423FD0A3691D42FCD171
:100520002160137801320D3B59424B411178DBB207
:100530000029EED13000254904F0B6FB002894D004
:100540004B460021B1461E001C4B532400255D5F25
:1005500020220D271E481A4B002910D1A54221D078
:1005600099690A42FCD11C60017801300D394C4276
:1005700061410478C9B2002C84D00029EED0996979
:100580000A42F0D099690A42F9D1ECE7A3691D4209
:10059000C6D0A3691D42F9D1C2E7A3691D42FCD1AF
:1005A0002760BAE799690A42FCD11F60D8E7C046C4
:1005B0000080FCBFD40E00205850001068100020AE
:1005C0000040034074500010A05000105C50001018
:1005D00064500010F8B50021492520220D27124B48
:1005E000124C00269E5F124B002910D1AE4215D04E
:1005F00099690A42FCD11D60217801340D394D42C0
:1006000069412578C9B2002DEED1FFF7D7FE99696F
:100610000A42F0D099690A42F9D1ECE799690A4295
:10062000FCD11F60E4E7C04668100020B050001005
:1006300000400340036810B5AC228360AA21AE23BA
:10064000074C5B0052004900C35882584158206053
:10065000043000F07FF823681868FFF7BBFFC0463E
:10066000D40E0020F8B5DE464E4657464546364B7A
:10067000E0B59B461B685C689946A369DB0638D4E5
:10068000324B494600229B5E00269846FF239C463B
:10069000F23B102520209A4611312D4AFF31A369E3
:1006A0001D42FCD1634627688F551F40B84526D0B0
:1006B00093691842FCD11760A36901361D4201D12C
:1006C000402EECD14B464A469B68D268D41A002C87
:1006D00034DD9D19FF2D18DC48461030C01832005B
:1006E00003F014FE5B461F68BD60B44201DC0135B7
:1006F000FD60F0BCBB46B246A946A046F8BD936972
:100700001842FCD153461360D2E78022484652007B
:10071000D21A103092B2C018904603F0F7FD5B4633
:100720001F684346390038001131F51AFF312A009D
:100730001030414403F0EAFDBD60D6E701349D1955
:10074000FF34FF2DC8DDE0E7D00E00206810002048
:100750000040034070B515001C00254E3060406815
:1007600001F0EAF82800022100F0ECF82000022154
:1007700000F0E8F8336880255868C023026B1B023C
:100780001A4003006D0130332B431A601022C36AF4
:1007900018491A4003002C332B431A60164B9C4611
:1007A0006044431E98411430040000F041F92000D9
:1007B000012100F023F950223468636820009A6315
:1007C000596B183A34331D430A402A6000238022B3
:1007D000A360E36000215200103003F091FD20007F
:1007E000113040220021FF3003F08AFD70BDC04669
:1007F000D00E00206506001000C0FCBF8368C268F0
:1008000010B591B29CB28C4205D91B0410041B0C8C
:10081000000C181A10BD00208C42FBD2802112045B
:10082000120C49001B04891A180C0818F2E7C0467C
:10083000F0B54E464546DE465746E0B58026760082
:10084000050083B030008946904603F03BFD041E4E
:1008500000D174E0E968AB688A469AB289B28A42EC
:1008600014D952461E0417043F0C360CF61B002EFA
:1008700017DC01267642200003F036FD300003B07D
:10088000F0BCBB46B246A946A046F0BD8A42F0D2B3
:10089000524617043F0C1B04F61B1B0CF618002EC7
:1008A000E7DD3204130C9B46B34229DC8022520060
:1008B000511A5B468AB239009BB2103169189342D3
:1008C00020D92000019203F021FD5B462900019A06
:1008D0001031A0189A1A03F019FD32004146200089
:1008E00004F09AFB002827D0061B13D501363304E9
:1008F0001B0CFF18FF2F0ADD013FFF3FEF60BAE737
:10090000B346D3E75A46200003F000FDE5E7534421
:10091000EB60B0E74B46002201369B191A702100AC
:100920003200484603F0F2FCEA68330417041B0C5B
:100930003F0C9246FF18DDE700260023DAE7012688
:1009400076429BE7094A830094464022634410B5EF
:100950001C68C0006240C02414408022520113432E
:100960001C60034B9C466044416010BD04C00140C4
:100970000040014070B5EFF3108C72B60D4D2B683E
:10098000002BFCD0BFF35F8F0724CB08C618C05CD8
:1009900001230C40A3401C000440034207D1034341
:1009A0003370BFF35F8F2C608CF3108870BD100024
:1009B00001F0C6F82C0100D0024B18688007C00F68
:1009C0007047C04600C006400021044B044ABFF3F4
:1009D0005F8F02C39342FAD17047C046000100D036
:1009E000800100D0044A1078431CDBB2172B00D9D9
:1009F000102313707047C046EC0100200123834090
:100A0000002904D0034A1360034A13607047034A65
:100A10001360FBE780E200E000E100E080E100E03D
:100A2000024B10309B688000C058704700ED00E01A
:100A300070B50D00EFF3108672B60F4A1368002BE5
:100A4000FCD0BFF35F8F0D4B10309B6884001B59A7
:100A50000B4A934203D09D4201D001F089F8074B25
:100A60009B681D51BFF35F8FBFF35F8F0022024B66
:100A70001A6086F3108870BD240100D000ED00E0FC
:100A8000CD010010F0B5DE4657464E464546E0B56E
:100A90000C0083B0EFF3108A72B65A4A1368002B29
:100AA000FCD0BFF35F8F1022914681444A46564BDB
:100AB00096009B689D59554B98469D4205D0A5428E
:100AC00016D0534FEB1B2F2B14D94F4B9B689D51C6
:100AD000BFF35F8FBFF35F8F00224A4B1A608AF328
:100AE000108803B0F0BCBB46B246A946A046F0BD94
:100AF0001D00EAE7012383409B465A46454B1B688D
:100B00001A4000925A46444B1A60BFF35F8FFFF7BA
:100B1000AAFB0190002803D0814501D001F028F8FC
:100B200001232A009A4393689C4208D15FE04B005E
:100B30005B189B00FB189968A14211D01A0006218E
:100B400051560029F3DA009B002B05D05A46334B4F
:100B50001A60304B1A60B8E75A462F4B1A60B4E758
:100B600006215956002921DB4A00501880003C1804
:100B70008046A0689860E079D87106202056987168
:100B8000002824DBA488F81A6405241544440019BD
:100B9000E0240005400D2402204398805218204B89
:100BA0009200BF181A781970BA71CCE70199002920
:100BB00010D1FF3191711B49918019490A789A71BE
:100BC000194ADB1B5B415A43120D0A70BBE7BD207B
:100BD0000002E2E7154A1649D21A083A5002400DBF
:100BE00001439980134952080A43DA80ABE7062192
:100BF000515613000029B7DA019A002AEAD1454676
:100C0000DBE7C046240100D000ED00E0CD0100107C
:100C1000F001002000E100E080E100E080E200E07F
:100C20007110002000BDFFFFAAAA00002A020020C8
:100C300000F0FFFF00F8FFFFF8B5012504000543B1
:100C4000FFF711FBEFF3108C72B6214A1368002BEB
:100C5000FCD0BFF35F8F1F4E2100B7681E4A1F4BA9
:100C6000891A49414B431B0D59B28300F858A842D9
:100C70001CD00623D3568B421CD01223D3568B4252
:100C800022D01E23D3568B4220D02A23D3560320B2
:100C90008B4210D0124B1A781970A271BFF35F8F7C
:100CA00000220B4B1A608CF31088F8BDB2680D4817
:100CB000D050EFE7002043001B189B00D218FF2301
:100CC0009371094B9380E5E70120F4E70220F2E7F6
:100CD000240100D000ED00E0F0010020AAAA0000ED
:100CE00071100020CD01001000BDFFFF054B064A2A
:100CF0001360064A136053609360D36013615361BD
:100D0000936170478080808000E400E004E400E0AC
:100D1000024B9C46614489000160704740000034EA
:100D200083680B4810B5844661446244090112018E
:100D30009A18591854684B6801209C4201D802D077
:100D40000020C0B210BD12680B689A42F9D8F7E7CC
:100D5000FFFFFF0F0A4B1968EFF3108072B60A68A5
:100D6000002AFCD0BFF35F8F1B68BFF35F8F0022A8
:100D70001A6080F3108840BF002000217047C046F1
:100D800054100020F8B557464E464546DE46E0B5BD
:100D900099460CAB1C780DAB1B78060090469A4622
:100DA0000768002C11D1BC7B002C42D065003B6849
:100DB0002D19033D59194B78BB73002B00D1FB73E0
:100DC00000238B704B700B7004E065003B682D199D
:100DD000033D5919B2682A4B94464246E3181B0159
:100DE00063441A604A465A600A9A9A600B9ADA601B
:100DF00000238B704B700B707B7B9B46002B2BD0A2
:100E000022005946B8687B6898473A68002816D08F
:100E10005B4658465B005B445519033BA870D118EC
:100E2000D35C002B00D06B705B460C707B73A345CA
:100E300013D0F0BCBB46B246A946A046F8BD5B46FF
:100E40005B005B44033BD3189C705119525D002A30
:100E500000D05A705B460B707C7342464B46307D27
:100E600000F0EEFA051E06D05346002B03D12100F8
:100E7000306800F007FD0E9B002BDAD01D70D8E71C
:100E8000FFFFFF0FF0B5DE464E46574645460023AE
:100E9000E0B58DB00A936B4B8200D3580B90994606
:100EA00000239B464B46079300F06AFA079C060016
:100EB0000F006268EFF3108572B61368002BFCD048
:100EC00022000794BFF35F8F2468637B9946002B51
:100ED00067D092685C4B90464B441B019844434654
:100EE0001A685B6810001900801BB94100295FDD9A
:100EF0000B9800F0A5FA00230026984600279A4692
:100F0000079C6368BFF35F8F5A461A6085F31088A9
:100F10005346002B08D10028C6D10DB0F0BCBB460B
:100F2000B246A946A046F0BD0A9B414618024B4670
:100F30001843D047089009916268EFF3108572B6A4
:100F40001368002BFCD00794BFF35F8F0899099AB0
:100F5000002A48DB114303D0079B1B69002B5DD19E
:100F6000079B1B68D97B002907D04A0052181968D3
:100F70008C4649466244033A51704A46DA734B46FE
:100F8000079A013BD168CA5C0132CA545B46079A92
:100F900013615368BFF35F8F5A461A6085F3108858
:100FA00082E700230026984600279A460020A7E7FC
:100FB000002901D100289BD10021200000F0E4FB92
:100FC00043461E685F689B68079A9A464346DB68FB
:100FD0009846D3684B44013B1B780A931B0203439A
:100FE000136100208CE72369002BB9D033003C004B
:100FF0005B1A94411A002300A74219D89F421BD0C4
:1010000059460491012103914946029141460191BB
:10101000514607980091FFF7B5FEB7E700F0B0F929
:10102000089A099B06000F0092197B419942E5D965
:1010300001225242D317E3E79642E1D901225242FC
:10104000D317DDE740100020FFFFFF0FF8B557462C
:101050004E464546DE46E0B5404D81468A466A68C2
:10106000EFF3108872B61368002BFCD0BFF35F8FCC
:101070002E68B47B002C39D0670033683F19033FDA
:10108000DB195A78B273002A00D1F273A968344A86
:101090008C464946A21812016244116051465160C3
:1010A000304991600021D160997059701970737B3B
:1010B0009B46002B35D022001900B0687368984712
:1010C0003268002820D05B4658465B005B44D71945
:1010D000033BB870D118D35C002B00D07B705B460B
:1010E0000C7073735C451DD0002626E06B68BFF35F
:1010F0005F8F1C6088F3108801204042F0BCBB4623
:10110000B246A946A046F8BD5B465B005B44033B84
:10111000D3189C70D119D25D002A00D05A705B465A
:101120000B7074734A465346287D00F089F9061EF9
:10113000DAD02100286800F0A5FBEB681B19013B01
:1011400019786B68BFF35F8F00221A6088F31088EC
:101150000020002ED2D108022043CFE73802002021
:10116000FFFFFF0F550D001010B5124C6368002BE8
:1011700004D00A211048FFF7CBFD10BD23000F4A11
:101180001021206800F01EFA032000F0EDF8032083
:1011900000F0C6F903200A4900F00CF9FFF722FC21
:1011A000084B9C46032360442375074B8000606016
:1011B000DC60DEE73802002054100020210D001012
:1011C000850E00104000003440100020F0B50400EF
:1011D0000D0006267642F717C64636196F4100B550
:1011E0008F4213D810D000F0CBF832003B00121A17
:1011F0008B41002B14DC002B37D02900200000F09D
:10120000C9F880BCB846F0BD8642ECD9002600275C
:1012100000F0B6F832003B00121A8B41002BEADDD9
:1012200030003900FFF712FF0028E6DB0023984664
:10123000BC460F4A0F4F7B6A9C4504D8B96A8E4260
:10124000DBD99C45D9D11168EFF3108072B60B68D9
:10125000002BFCD0BFF35F8F1368BFF35F8F414655
:10126000196080F3108820BFE5E7002AC5D0D7E7D2
:10127000541000200040054070B5060000F080F8D2
:10128000FA2204000D00002330000021920002F039
:10129000B7FF001969418D4205D802D0FFF796FFCC
:1012A00070BD8442FAD901204042C117F6E7C0461A
:1012B000F0B5D6464F464646C0B5EFF305833F220C
:1012C000134018001038EFF3108C72B6204D2A68C6
:1012D000002AFCD0BFF35F8F0122110081401D4C1A
:1012E000884661631C4917000E788A463100C14068
:1012F0000F400A4209D1BFF35F8F2F608CF3108833
:10130000E0BCBA46B146A846F0BD14498200646A02
:1013100051588C420FD3124BD25843469E435346EA
:101320001E70BFF35F8F00232B608CF31088002AA0
:10133000E6D09047E4E70B4A9B00904643441A6886
:101340001A60BFF35F8F00232B608CF31088D7E700
:10135000280100D0004005407210002058100020E5
:10136000440E0020D03F054010B50100024A03485A
:10137000FFF700FB10BDC046CC50001070100020DD
:10138000034B596A0A00986A596A8A42FAD170472F
:1013900000400540064A536A9942FCD807D1044BE5
:1013A00002E05A6A914202D19A6A8242F9D37047A6
:1013B0000040054070B504000D00EFF3108672B6D2
:1013C0001A4A1368002BFCD0BFF35F8F002D1BD08F
:1013D0002000FFF725FB164981420AD02000FFF7C5
:1013E00027FB01212000FFF709FB0123A340114A3D
:1013F0001360114BA400E550BFF35F8F00220B4B2D
:101400001A6086F3108870BD0B4BA200D5500122E4
:10141000A2400A4920000B7893430B700449FFF760
:1014200031FB00212000FFF7E9FAE5E7280100D0B1
:10143000B112001038600540440E002072100020E8
:10144000F0B54F46D6464646C0B507002F4C616AF8
:101450000D00A66A616AA942FAD18B4208D805D06C
:101460000120E0BCBA46B146A846F0BDB242F7D969
:10147000EFF3108A72B6264801680029FCD0BFF34A
:101480005F8F0125BD402349204C88460978894655
:101490002943C9B28C46414660460870391D1E4832
:1014A000890065630A51B9000B50216A0020294266
:1014B00019D0616A0800A66A616A8142FAD18B423A
:1014C00019D801D1B24216D8CC451DD00F4B1F20E0
:1014D0001D625D6301230740BB40104A1E38136044
:1014E00043464A461A70BFF35F8F0022084B1A60CA
:1014F0008AF31088B5E70020BFF35F8F0022044B0A
:101500001A608AF31088ACE70120ECE70040054040
:10151000280100D0721000205810002080E200E066
:10152000EFF3108C72B60A490B68002BFCD0BFF3A6
:101530005F8F01238340074A0748136202789A436A
:101540000270BFF35F8F00230B608CF3108870472D
:10155000280100D0004005407210002070B5050041
:1015600014001600002915D00C00002A12D0806843
:101570006B689847296800280ED073009B19620099
:10158000033B1219CB18033A9C7088188A5C002A16
:1015900015D10670200070BD63001B197200033B5B
:1015A0009219CB18033A9E7088188A5C002A02D1DF
:1015B00004703400EEE75A7004703400EAE75A70A1
:1015C0000670E7E730B583600023CCB24373013384
:1015D000047342608373C4730D000068012C06D944
:1015E000421C0133DBB2137003329C42F9D1FF215C
:1015F00029404B005918002340180338437030BD70
:10160000F8B5CE46474606000C0080B5002907D045
:101610004D0003686D18033D5A195778002F04D107
:101620002000C0BCB946B046F8BD7900C9190339DD
:10163000884643445978894600215970517073682F
:101640003A002100806898473368002814D0424649
:101650009A18947059195B5D002B00D053700F706D
:10166000270049463000FFF7CBFF39000200300069
:10167000FFF774FF0400D3E7424641465D19AF709F
:101680009A185B5C002B00D06B701470E9E7C046C1
:10169000F0B557464546DE464E46E0B50D006B00B8
:1016A00001685B19DF1E0400C85D83B00192CA198E
:1016B00000284CD043001B18033BCB185E78B4467F
:1016C000002E16D1019E002E3ED0E67B002E04D0C7
:1016D00073009B19CB18033B5D70E57300282FD175
:1016E0000023537003B0F0BCBB46B246A946A046E7
:1016F000F0BD72006244033A89184A78904600228D
:101700004A7091465A70010032002000FFF726FF10
:1017100043468246002B07D05B0021684344033BCD
:10172000CB185A78002A16D1424651462000FFF7BE
:1017300015FF2168019BCA19002BC6D10028CFD004
:1017400043001B18033BCB1800219970C8E7019B8D
:10175000002BBAD1C4E75000801803380918487824
:10176000834648464870587041462000FFF7F6FE11
:10177000594680462000FFF743FF41460200200003
:10178000FFF7ECFE8046CFE7F0B557464546DE460C
:101790004E46E0B583B00191457B04006B000068C4
:1017A0005B19DF1EC15DC21900294ED04B005B18CA
:1017B000033BC3185E78B446002E18D1019E002E5C
:1017C00040D0E67B002E04D073009B19C318033B66
:1017D0005D70E573002931D10023280053706173D7
:1017E00003B0F0BCBB46B246A946A046F0BD7200AD
:1017F0006244033A80184278904600224270914633
:101800005A7020003200FFF7A9FE43468246002BA3
:1018100007D05B0021684344033BCB185A78002A69
:1018200017D1424651462000FFF798FE019B010068
:101830002068C219002BC4D10029CDD04B005B1801
:10184000033BC31800209870C6E7019B002BB8D15A
:10185000C2E7500080180338091848788346484684
:101860004870587041462000FFF778FE5946804680
:101870002000FFF7C5FE414602002000FFF76EFE84
:101880008046CEE770B5040000292CD0437B8B4204
:101890002ED0056848004018033828188278002A9E
:1018A00021D053009B18033BEA5CEE188A4202D118
:1018B0001BE0002A08D053009B18033BEB185A7812
:1018C0008A42F6D142785A70002301228370437015
:1018D0002000FFF7DDFE617B02002000FFF73EFEE7
:1018E0006073012000E0002070BD43783370EBE7A7
:1018F00001221900FFF7CCFE60730120F4E7C04617
:1019000010B50400FFF76EF801002000FFF700FAA1
:10191000FF232371BFF35F8F10BDC04610B50400D5
:10192000FFF760F801002000FFF7F2F9FF23A38022
:10193000BFF35F8F10BDC046F8B5040006200D0050
:1019400000F07AFA002844D02A4B2B49E21853427F
:101950005A418023DB039C469205284B62441A605F
:10196000274B1A6010008B689843FBD1214B8021D4
:10197000E3185A425341234A5B004900995206201A
:1019800000F05AFA2900C00001F014FEC30921D169
:1019900040270121260080256162A36200232C36A6
:1019A000AD0135432B60062000F046FA3900800077
:1019B00001F000FE6023E26A53406E221A40802349
:1019C0005B0133431A60104B236310232B600D3BE4
:1019D000A364F8BD0D4A934203D900230C4F0D496F
:1019E000D8E77F221040013040089F0119003F18BE
:1019F0000300CFE70080FCBF00C0004000E00040D3
:101A000000F000406810002001030000FEFF00000D
:101A1000C0FF3F00FFFF00002C4B2D4A70B51A603D
:101A20002C4A2D4B2D491A6014008B689C43FBD126
:101A30002B4D2C4EB54208D2013E761BB60808CD80
:101A4000984723000134B342F9D100F097F8264AB1
:101A5000214B1A60214A9368DB43DB01DD09002B2F
:101A6000F9D14022214B224C224E9A675A671A67BD
:101A7000DA66B44208D223682000002B20D0083454
:101A8000FFF74CFFB442F6D31B4E1C4CC022A1689A
:101A9000300002F03BFCA660FEF796FFFFF726F948
:101AA000FFF762FB164C174EB44208D2013E361BBC
:101AB000B60808CC98472B0001359E42F9D170BD7D
:101AC0000834FFF71DFFB442D5D3DDE700E0004046
:101AD000BFCDFBFEFE7F3C0000F0004000C0004098
:101AE000D80A0020E80A0020FFFFFF0100F00140B3
:101AF000D00A0020D80A00200000002000ED00E0FD
:101B0000E80A0020EC0A0020094A030010680028B7
:101B100005D00849C3188B4207D8136070470648A0
:101B20000449C31810608B42F7D901204042F5E701
:101B3000C80E0020000004207410002000BEFDE745
:101B40000FB400B5084883B002F016FD049B002BCB
:101B500007D005A91800019101F0B2FC034802F07A
:101B60000BFD00BEFDE7C046F0500010C85000104D
:101B700010B50148FFF7E4FF0051001030B50C200C
:101B800083B000F0B7F9FEF717FF00280ED0944B92
:101B9000944A1A605A609A60DA601A615A619A61CE
:101BA000DA611A62904A5A6203B030BD8F4CA06766
:101BB00000F0A8F901228E4B1A60636C012BFCD156
:101BC00003228C4B1A60894A936B012BFCD10133A1
:101BD0000121894A89480093043300F033F9052331
:101BE000874A00930121874800F02CF9864B5A68F8
:101BF000FF2A02D8802252005A608022784C7D4B06
:101C000021691201804D1A60002905D0606901F038
:101C1000D1FC01300138FDD1E0217B4B02201A6854
:101C20001140802252012A43116019684840032163
:101C30000140116004219A681142FCD08022802169
:101C400092012A4309011160802252005A606F4BB1
:101C500023616F4B5968FF2900D85A600321644AF9
:101C60006B4B116002399A681142FCD0E0201A686F
:101C70001040802252011A43106018684840032126
:101C800001400220116062498A681042FCD0802223
:101C900092011343802212011A6080225D4B520090
:101CA0004A6063615C4B5968FF2900D85A60802202
:101CB0005A4BE1691201584D1A60002905D060693C
:101CC00001F078FC01300138FDD1E02252490B6867
:101CD0001A4080235B012B431A60802380229B01E2
:101CE0002B4312011A6080223E4B52004A60E3618E
:101CF0004B4B5968FF2900D85A608022494B216A12
:101D00001201474D1A60002905D0606901F052FCAC
:101D100001300138FDD1E02241490B681A4080238F
:101D20005B012B431A60802380229B012B4312010D
:101D30001A60802380225B004B602A4BD202236210
:101D4000394B5968914200D25A608022374B616A00
:101D50001201354D1A60002905D0606901F02AFC96
:101D600001300138FDD1E0222F490B681A40802351
:101D70005B012B431A60802380229B012B431201BD
:101D80001A608023DB024B60174B6362284B5A6852
:101D9000FF2A02D8802252005A608022254BA16976
:101DA0001201234D1A60002905D0606901F002FC80
:101DB00001300138FDD1E0221D490B681A40802313
:101DC0005B012B431A60802380229B012B4312016D
:101DD0001A6080235B004B600E4BA361E4E6C046B3
:101DE000540E0020006CDC021BB700000080004095
:101DF0003CB0004030B00040002F685900800240E5
:101E0000008C864700C0024030800040001BB700B5
:101E10003C800040405973075480004054B000405B
:101E20006080004060B000406C8000406CB00040BA
:101E30004880004048B00040014B8000C0587047C7
:101E4000540E0020F0B5C646040000B50C209046A4
:101E50001F000E0001F0AEFB4101091A8D01691A45
:101E6000C90009188901404601F0A4FB069B3F0404
:101E70001A0323681743002B22DB1A4B1A4DE21872
:101E800053425A4180235B019C461203174B624424
:101E90001A60174B1A601100AB689943FBD1C0223E
:101EA000231D92011A4321232660A060136023683A
:101EB000002BFCDA0823E760136080BCB846F0BD55
:101EC0003F2322681340B342D7D1A3681B051B0DE3
:101ED0008342D2D1EE22E368D2021340BB42CCD17E
:101EE000EBE7C0460040FDBF00C0004000E00040FE
:101EF00000F000408023024A9B000343D3627047F6
:101F000000800540AA23064A1B0113602F230549C0
:101F1000D360054B19605368002BFCDA7047C0464C
:101F20000040024000B0FA00006002409A4200D235
:101F3000885470477047C046F8B557464E464546E8
:101F4000DE46E0B599460A9B07009A460D9B8846F7
:101F5000934615000B9E9B0710D10C9B9E420DD201
:101F60009D1B14000E005D4422004B4601343100DD
:101F70002020B847A542F7D1B0460B9E002E27D0AF
:101F8000444675195346AA1B013E985D21004B46F5
:101F9000B847002EF6D123002C0098460D9B9B07D6
:101FA0000FD55B46E51A0C9BAB420AD946469846CC
:101FB00022004B46310020200135B8470134A845A6
:101FC000F6D82000F0BCBB46B246A946A046F8BDF4
:101FD0002C00E3E7F0B54F464646D646C0B584B080
:101FE00098460EAB1B78129F994694460D9C109B09
:101FF000119EBA0725D4002E4BD19C4200D3BFE0DE
:1020000001223A4092461F2C00D9B8E00C9A551E86
:10201000302201E0202C03D001342A55A342F9D804
:102020005246002A0DD0A6420BD9202C44D00C9A3F
:10203000551E302201E0202C3ED001342A55B442F6
:10204000F9D1FA064DD57A053FD4002C39D10F9B32
:10205000102B00D179E00F9B022B00D18AE03023B6
:102060000C9A012413704B46002B3FD02D230C9A61
:10207000135501340C9B6246009303974346029626
:102080000194FFF759FF04B0E0BCBA46B146A84638
:10209000F0BD012215003D40AA463A422FD04A46E3
:1020A000002A02D10C323A4200D0013E9C42BAD200
:1020B0001F2CABD9202E27D92024FA06DAD57A0591
:1020C00003D4A3422DD0A6422BD00F9B102B32D08D
:1020D000022B20D0202CCDD030220C9B1B191A7043
:1020E0000134202CC6D04B46002BBFD17B070DD42A
:1020F0003B07BFD520230C9A13550134BAE79C4205
:102100009FD21F2C00D881E720249AE72B230C9A1A
:1021100013550134AEE7202CACD00C9B1B190134B5
:102120003AE0631E012C92D00F9A102A2AD0022A7C
:102130002FD01C00D0E7BB060ED4202C9AD00C9BCD
:102140001A19013478231370C4E7BB060DD4782321
:102150000C9A01241370BFE7202C00D18AE7582283
:102160000C9B1B191A700134B4E758230C9A0124F4
:102170001370B1E70C9A603301241370ACE720248C
:1021800000265EE7023CBA06E9D40C9A12191C003C
:10219000D8E70C9A9246534462221A709AE7C046D6
:1021A00010B5002800D110BD02F096F9FBE7C0463B
:1021B000F0B5DE4657464E464546E0B59BB09B46D9
:1021C000249B89469846259B0B900C92404642469C
:1021D00019009A4601F0BFFC002800D0D8E0012287
:1021E00040465146774B524201F0B0FC002800D0E7
:1021F000CEE0012240465146734B524201F090FC22
:10220000002800D0C4E0002200234046514601F0DF
:1022100087FC002800D0B9E1424653460A92099350
:102220008023289ADB001A400E92289A1A4201D184
:10223000062326930A9A099B1600134300D0C7E091
:10224000289B002500261B0500D49BE100230D934D
:10225000269A0D9B9A4200DC9FE1D01A431E2693DA
:102260008023289ADB001A430023002728920D932D
:10227000279B0024BB4200D9DC1B0223289A1A406A
:102280000E92289A134203D07B427B415B421C4052
:102290000D9B002B07D00A9809992A00330001F002
:1022A000DEFB0A900991002200234046514601F0CE
:1022B00037FC002805D08020000684460999614437
:1022C0000991289A414B0B9D13400493269B0A9A2F
:1022D0000293099B03940092019349465B462800B0
:1022E0000C9A00F08BF90400002F62D0289B22008A
:1022F00098061F23C0179843631C984649465B46BF
:102300006530A8470D9B0025DA179C18DB0F9A460D
:102310005440013F01E0202D13D00AAA94461F2308
:10232000200063440A2101355E1901F043F9303180
:10233000317020000A2101F03DF926000400092E29
:10234000E9D805230693002304930A3303935346E5
:1023500005970B9F029312AB009342465B4649469A
:1023600038000195FFF736FE0E9B0400002B20D0AD
:102370000C9BC51A279BAB421BD91E0022005B4653
:10238000494620200135B8470134AE42F6D810E066
:10239000289B42460493279B49460393269B0B9810
:1023A00002935346009201935B460C9A00F026F983
:1023B000040020001BB0F0BCBB46B246A946A046B4
:1023C000F0BDC046FFFFEF7FFFFFEFFFFFF7FFFF0E
:1023D000734B099F9C467800400D604401F0CEFB92
:1023E000704A714B01F059FB704A714B01F02EFBA2
:1023F0003B03704A1B0B1A4304000D003000110010
:102400006D4B002201F019FB6C4A6D4B01F045FB4E
:1024100002000B002000290001F018FB01F0C6FBB0
:102420000D9001F0ABFB674A674B04000D0001F013
:1024300034FB0022654B01F009FB01F0B7FB644A55
:102440000600644B2000290001F027FB0400300047
:102450000D000F9601F092FB5F4A604B01F01DFBEF
:1024600002000B002000290001F0E7FA02000B0037
:1024700006000F0001F011FB320004000D003B00CC
:102480003000390001F0E2FA002210901191544B13
:102490002000290001F0E3FA0022524B01F0D6FAA5
:1024A00002000B002000290001F0D9FA00224E4B57
:1024B00001F0CCFA02000B002000290001F0CFFA55
:1024C0000D008021040032003B000020C90501F00E
:1024D000B4FA02000B002000290001F0B7FA020054
:1024E0000B001098119901F0BAFA0022314B01F05B
:1024F000ADFA3E4B0F9C9C4664440022230501F03C
:10250000CCFA05000E0002000B000A98099901F0B0
:1025100007FB00280AD00D9B2800013B31000D93DA
:102520000022304B01F09BFA05000E00C6270D99E2
:102530002B0063318F42BF4128997F420437090540
:1025400000D495E6334300D182E6099C284A210055
:10255000284B0A9801F0F2FA002808D00022210046
:10256000254B0A9801F0DCFA002800D070E6269B83
:10257000002B00D17CE60E9B5A1E9341269AD31A5B
:10258000269375E6002304270D9371E643460A93CC
:1025900080231B065344099342E6002326935FE6FB
:1025A00001FCFFFFFB799F501344D33FB3C8608BFE
:1025B000288AC63F0000F03F0000F83F61436F6388
:1025C000A787D23F71A379094F930A400000E03FEB
:1025D0001655B5BBB16B0240EF39FAFE422EE63F0D
:1025E00000002C400000244000001840FF030000C1
:1025F0002D431CEBE2361A3F80842E41F0B54E4647
:10260000DE4657464546E0B597B09946209E219F45
:10261000229B8346984607910C923B003200300083
:10262000390001F098FA002800D0A9E10122300019
:102630003900CA4B524201F073FA002800D0E1E0A1
:10264000012230003900C64B524201F07FFA0028C7
:1026500000D0B7E0002230003900C24B01F076FA1A
:10266000002800D099E0002230003900BE4B01F074
:1026700057FA002800D090E00022002330003900F3
:1026800001F04EFA002800D0B1E000230D93249B06
:102690005B0501D40623984608AB9C46172200240C
:1026A00030234146624404E0013413550139202CA3
:1026B00001D00929F8D888463000390001F076FAAF
:1026C0004346DA00A94B05009B181A685B6808921C
:1026D000099301F053FA02000B003000390001F0B9
:1026E000ACF9089A099B01F0D8F90A900B9101F016
:1026F00081FA824601F03EFA02000B000A980B991B
:1027000001F09BF900229A4B0A900B9101F01EFAFE
:10271000002800D1C0E001239C46E244504601F06D
:1027200029FA02000B000898099901F0FFF9002826
:1027300002D000239A4601354346002B6AD008ABED
:1027400017269C4608956644554614E001235B42D3
:1027500043440A2128009A4600F02CFF013430310E
:102760003719397028000A2100F024FF092D00D8FC
:10277000D0E0D0460500202CE8D10EAB98460323CC
:10278000249A1340012B00D196E02023249A019330
:102790000392239A434602921EE0249B58460493D8
:1027A000239B00960197039343460C9A0293079943
:1027B0004B46FFF7FDFC17B0F0BCBB46B246A9463E
:1027C000A046F0BD249B5B070ED40322694B2499DD
:1027D0000192039123990291009358464B460C9A1B
:1027E0000799FFF7A9FBE6E70422634BEFE73B00FD
:1027F00032000020002101F020F9012306000F0023
:102800000D9344E7249B0393239B0293042301939A
:102810005A4BE1E7280001F0B1F902000B0030004B
:10282000390001F00AF9524B002206000F0001F0B6
:1028300077F90EAB984600280AD100223000390003
:102840004B4B01F083F9002802D1EB0700D501358D
:10285000202C94D008AA94461723280063440A2108
:1028600001341E1900F07EFE3031280031700A213B
:1028700000F078FE051EEBD10323249A1340012BB0
:102880001BD0202C00D180E70D9B002B35D02D22B2
:102890004146631C0A5579E700220A980B99344B8C
:1028A00001F03EF9002800D046E75346002B51D1F5
:1028B00001239C46E2443FE72024239B002BE0D0E9
:1028C0000D9B002B03D1249A0C33134202D0239B7F
:1028D000013B2393239BA342D3D908AB9C461722E9
:1028E00030236244202C00D14FE723990134135543
:1028F0008C42C6D0202CF8D147E7249B5B0724D418
:10290000249A2300120700D440E7202241460133D5
:102910000A553BE75746089D202C00D12DE72200A1
:1029200030214046002F09D00132B154202A00D175
:1029300023E7D3431B191B18002BF5D10EAB984688
:102940002E234146541C8B5482E72B224146631CA4
:102950000A551BE7DB0700D4EEE6A9E7FFFFEFFF10
:10296000FFFFEF7F65CDCD4165CDCDC10853001090
:102970000000E03F0C510010105100101C510010DD
:10298000249B0393239B029303230193004B23E790
:1029900018510010F0B5DE464E4657464546E0B5A4
:1029A0009FB01C00289B91460993C94AC94B8B468E
:1029B00008901A60002900D118E2002320789A4676
:1029C000002800D11AE226001D005C460AE02A0019
:1029D0006F1C4B46089D2100A8473D00013630780A
:1029E000002870D02528F2D110239B46083B9A4638
:1029F000043B9846023B00219C46721C107816004E
:102A00000300203BDBB2102B03D8B34F9B00FB58D5
:102A10009F460300303B092B32D900230A932A2812
:102A200068D0002398462E283ED00300683BDBB2D6
:102A3000122B1CD8A94A9B00D3589F460123013270
:102A40001943DBE7634601321943D7E743460132B6
:102A50001943D3E75B4601321943CFE753460132AE
:102A60001943CBE780235B007078194301360300DC
:102A7000253BDBB2532BAAD8994A9B00D3589F46DB
:102A800000270300B800C01901364000C018337891
:102A900030381A00303A0700092AF3D90A90180092
:102AA000002398462E28C0D180237078DB0019437C
:102AB0000300303B721C092B00D8A1E12A2800D169
:102AC000B2E11600B1E7A346AA462C00D14503D8CF
:102AD00001235B424B449A464B46524659460020DE
:102AE000089DA84720001FB0F0BCBB46B246A946CF
:102AF000A046F0BD099B40CB0A96002E03DB507820
:102B00000993561C8DE72838014370420A900993B7
:102B10005078561C85E7782800D1DFE1582800D18D
:102B20004CE26F2800D14FE3622801D100F030FC65
:102B300010230A009A430B92692801D000F0A9FCE7
:102B40000A230C934B0500D5D0E10B9A802311008A
:102B50009B0019408B461A4200D0A1E2802311004D
:102B60005B0019408A461A4200D0B6E313005B06A8
:102B700000D5EDE2130009991B0601D400F076FCA4
:102B800008C91BB2D8171A18424092B2099193464D
:102B9000DA0F1292002B09D1802310220B99DB004F
:102BA0000B4091430B91002B00D0E4E20B9A612380
:102BB000920600D541230EA91F228C46DBB2624447
:102BC0000A3B5F461395A34655460C9CB2460D93AF
:102BD00016000AE03033DBB201357355A74200D24C
:102BE000EDE2202D00D1EAE207002100380000F0DC
:102BF000E1FCCBB20929EDD90D9A94466344DBB2CE
:102C0000EAE780239B007078194301362FE770783C
:102C1000682800D1CDE180230136194327E7707879
:102C20006C2800D1BFE180235B00194301361EE709
:102C3000462800D19BE10722099B04910733934367
:102C40000A9A19000392424602920CC9089800920F
:102C5000019309912A004B462100FFF7CFFC013672
:102C60000500BCE62A006F1C4B46089D210025206C
:102C7000A84701363D00B2E68B0700D4ADE1099BC1
:102C80002A009A466B1C9846534601CB21009A466F
:102C9000089F4B46C0B2B8470A9B9C466544012B2F
:102CA00000D886E2089B4746B04626004C46994627
:102CB0003A002300013731002020C847AF42F7D146
:102CC000A1465346340046460993013687E6C0467E
:102CD00095290010CC0E00202451001068510010DE
:102CE000B4510010099B04CB9B4643460992002B2C
:102CF00000D1C6E013789C46002B00D1BDE34346CB
:102D0000013B099A0133D0180A9F130001E0834266
:102D100003D05A780133002AF9D1099A0A979B1AED
:102D20000B9380230A00DB001A400C92194204D056
:102D30000B9B434501D943460B9302231A000A40DB
:102D40000D920B4200D187E16046002800D168E176
:102D50000C9B002B00D10DE1A844C246099B5746AD
:102D60005B1B9846089BB2462A0026004C469946B3
:102D700009E023003100551CC8474346585D002830
:102D800000D126E12A009742F3D1A1463D0034004C
:102D900056460D9B002B00D043E15B46013609935C
:102DA0001DE6099B1A0008CA9246002B48D0212232
:102DB00011438B460EA884461F21614409950022C9
:102DC0000F27A4460D0002E0202A0CD00B003C0087
:102DD0001C4020003730092C00D807380132A85495
:102DE00019090F2BF0D86446099D32E0DC4B20789E
:102DF000089300239A46002800D0E4E5002465E605
:102E0000434606000A9F9800C0180132400080190E
:102E10001678030030003038303B0928F3D93000F1
:102E2000984616000A9700E6099B023604CB9046A6
:102E3000D2434046D2171040804609933078F4E5DB
:102E400010220800904311321043834600224905A6
:102E5000B0D55B460693082305934346049310239D
:102E600003930023029316AB019200932A004B4672
:102E700021000898FFF7AEF8534605000136099384
:102E8000ADE513789C46002B00D1F7E202235B42AC
:102E900037E7202302009A43472A04D180231B01ED
:102EA000194302239843452801D1202319430722BF
:102EB000099B0491073393430A9A190003924246EF
:102EC00002920CC908980092019309912A004B467E
:102ED0002100FFF76DF90136050080E510230C9302
:102EE0000C230A009A430B924B0503D501230B9A3E
:102EF0009A430B92692800D127E6642800D124E682
:102F00000B9A802311009B0019408B461A4200D077
:102F100066E1802311005B0019408A461A4200D006
:102F200039E213005B0600D53CE113001B0600D418
:102F3000A6E2099B04CB1204120C934609935B464C
:102F4000002B00D09AE10B9A1033110099430B919A
:102F5000520500D492E100239A460B9B06930A9BEC
:102F60000593434604930C9B039300230CE1202319
:102F7000194360E6099B0A9A5B1B98464B469146AB
:102F80001F00B2462600089C2A003B003100A047E3
:102F900043460135585D0028F6D14A463400B9460B
:102FA00056460A92F5E6C0239B00B07819430236D4
:102FB0005DE5C023B0781943023658E50C230A00BA
:102FC0009A4314331A43103B0B920C934B058DD448
:102FD00096E7A14634005646DBE60A9A012A00D855
:102FE00053E26B1E9F18089BB04626004C4699463C
:102FF0002A002300013531002020C847BD42F7D107
:10300000A14634004646099B3A0001CB2100984670
:103010007D1C4B46089FC0B2B84743460136099312
:10302000DDE40B9B0A9AA8469A4200D8B5E694467E
:103030006544ED1A089B4746B04626004C46994623
:103040003A002300013731002020C847AF42F7D1B2
:10305000A14634004646A0E60B9A0A99531C9142B9
:1030600000D814E24B199B1A1F00089BB246260099
:103070004C4699462A002300013531002020C847DC
:10308000BD42F7D10A9BA14601330B93099B340043
:103090001B7856469C466046002800D058E67CE6E1
:1030A0000722099B07339343013294469C446246AE
:1030B0005F6809921A68FB17109311931098119981
:1030C000030053400E930B007B400F9394460E9ADF
:1030D0000F9B121A8B410E920F93FB0F62461293B5
:1030E00000233A439B463DD00B9A6123920600D5BC
:1030F00041230022DBB20EA90A3B8C4692460D9377
:1031000043461F3262441395159655460E9E0F9FF7
:10311000A24690460C9C14930CE03032D2B2434647
:1031200001355A55BB4500D18AE1202D00D18AE1F5
:1031300006000F00220000233000390000F07CFA66
:10314000D2B2092AE9D90D9B9C466244D2B2E6E785
:10315000FF23099904C913401A00099117E5C046D5
:10316000351F00100B9A1033110099430B91520533
:10317000BAD500239A460B9B06930A9B05934346B8
:1031800004930C9B0393129B02935346019316AB3B
:103190002A00009321004B460898FEF71BFF0136DA
:1031A00005001CE4FF22099B02CB11408B460993CA
:1031B000C5E65346454609930136FFF710FC5646CF
:1031C0005C46AA46139DD6E708230C930B910B99F6
:1031D000642800D084E60B9B5B0500D586E6B4E44A
:1031E0000722099B07339343013294469C4462466D
:1031F00009921A685B6810009B4613005A461343F5
:1032000007D10B9A1033110099430B91520500D549
:10321000A1E60B9A6123920600D541230022DBB27E
:103220000EA90A3B8C4692460D9343461F326244D8
:103230005F461295A34655460400B24690460C9E42
:1032400013930DE03032D2B2434601355A55002374
:10325000BB4200D100E1202D00D100E104000F00AD
:10326000320000232000390000F0E6F9D2B2092A2A
:10327000E8D90D9B9C466244D2B2E5E70B9A6123E4
:10328000920600D54123DBB20EA90A3B1F228C46D1
:103290000D93230062445C461295170055469B46E9
:1032A000B2460C9E08E03033DBB201357B55B442A8
:1032B0000ED3202D0CD004003100200000F07AF94C
:1032C000CBB20929EFD90D9A94466344DBB2ECE7FF
:1032D00056465C46AA46129D3FE6099B1A0008CA5C
:1032E000D91713925A184A409246DA0F1292002BBD
:1032F00008D1802310220B99DB000B4091430B91E6
:10330000002B2BD10B9A6123920600D541230EAAE4
:103310001F279446DBB20A3B0D9567445D4609932F
:10332000A3465446B2460C9E08E03033DBB201356A
:103330007B55B4420ED3202D0CD004003100200068
:1033400000F038F9CBB20929EFD9099A94466344C1
:10335000DBB2ECE756465C46AB460D9D0B9B2A0064
:1033600006930A9B21000593434604930C9B0898FF
:103370000393129B013602935B46019316AB0093B5
:103380004B46FEF727FE139B05000993FFF727FB2B
:1033900002230C931AE7099B04CB92461293002A4E
:1033A00008D1802310220B99DB000B4091430B9135
:1033B000002B2BD10B9A6123920600D541230EAA34
:1033C0001F279446DBB20A3B0D9567445D4609937F
:1033D000A3465446B2460C9E08E03033DBB20135BA
:1033E0007B55B4420ED3202D0CD0040031002000B8
:1033F00000F0E0F8CBB20929EFD9099A944663446A
:10340000DBB2ECE756465C46AB460D9D0B9B2A00B3
:1034100006930A9B21000593434604930C9B08984E
:103420000393002302935B46019316AB00934B4634
:10343000FEF7D0FD129B050009930136FFF7CFFA86
:10344000B44200D871E6149B54460E960F97AA46D4
:103450009846159E139D8EE6A64200D8FBE6139B68
:1034600056469846AA465C46129D76E508C9D81786
:103470001A1842400991FFF78AFB00230B9350E48E
:10348000099B04CB9346099359E52F00BBE50B93A9
:1034900001E6063B0C939AE60EB4012210B585B006
:1034A00007AC08CC01000094524204480394FFF793
:1034B00071FA05B010BC08BC03B018472D1F0010EE
:1034C00010B5094A0300146884B0002C08D001220A
:1034D00000910648524203A9A047012004B010BD44
:1034E00001F04AF80020F9E7CC0E0020A1210010DD
:1034F00001480421014B18476002002021350010CB
:10350000142310B50100188804331B88984710BD98
:10351000162310B50100188802331B88984710BD88
:10352000F8B54746CE4680B50F1E19D014239946EC
:10353000043304000025012698464B46188843466C
:1035400021681B88984701C4431E984101354042B9
:103550000640AF42F1D13000C0BCB946B046F8BD1C
:103560000126F8E7124A936F9B0815D29066D16640
:10357000002905D0FFE7FFE7FFE7516F106F7047A5
:1035800004B580210906C2175140002800D0C84365
:1035900001F04AFD002104BDF0B5146E556E576F61
:1035A000166FFFF7E3FF1466556657671667F0BDA1
:1035B000000000D0114A936F9B0813D21066516629
:1035C000002905D0FFE7FFE7FFE7516F106F704755
:1035D00004B5002801D00020C04301F025FD0021E2
:1035E00004BDC046F0B5146E556E576F166FFFF7E9
:1035F000E5FF1466556657671667F0BD000000D0FA
:1036000094464E4A926F9208624601D230E0C0461C
:10361000F0B54A4EB56F6D08FCD3346E756E776F9A
:10362000366F00F025F89446444A1466556657678D
:1036300016676246F0BDC0469446404A926F9208B3
:10364000624601D258E0C046F0B53C4EB56F6D08F9
:10365000FCD3346E756E776F366F00F04DF894467C
:10366000364A14665566576716676246F0BDC0460F
:10367000002B24DB11D000293EDA00B5C9434042BB
:1036800000D1013100F038F8C943404200D1013186
:10369000DB43524200D1013300BD002AEBD10028A8
:1036A00001D1002905D00020C90FC90701D1C043AD
:1036B000410800B501F0A8FC0022002300BD00B5C0
:1036C00000290ADBDB43524200D1013300F014F839
:1036D000C943404200D1013100BDC943404200D13D
:1036E0000131DB43524200D1013300F005F8DB43E6
:1036F000524200D1013300BD002923D1002B18D143
:10370000002A0CD0BC460D4F38667A660021002393
:10371000FFE7FFE7FFE77A6F386F674670470028DB
:1037200001D00748010000B501F06EFC0022002323
:1037300000BD02000B00002000217047000000D0F7
:10374000FFFFFFFF002B00D0BFE0130C28D1002AA1
:10375000E7D080B4114F39667A66FFE7FFE730B4EF
:10376000040C7B6F396F1B0423433B667A66FFE7CB
:10377000FFE7FFE7C04684B27B6F3D6F1B04234326
:103780003B667A66FFE7FFE7C04600232C042D0C5A
:103790007A6F386F00196941B0BC7047000000D0E3
:1037A000F0B594460025140E01D112020835140F0D
:1037B00001D112010435940F01D192000235D40FCA
:1037C00001D152000135D40B0134254F7C66254CC4
:1037D0003C660E0C93B2FFE7FFE7FFE73C6F6643E2
:1037E000360C7703BE467343DF0B5B04C01AB94146
:1037F000130C7343DB18C91ACE086643360CB64463
:1038000093B273431F0F1B01C01AB941130C7343CA
:103810001F0B1B05C01AB941860D8F023E4366433C
:10382000360C092D24DB520A7243801A7703460AAC
:103830006643360C16235B1BDE40DF40BF1964462F
:103840006643821B7046043506330100D940A84008
:10385000C01900D30131A24206D20023F0BD0000FE
:10386000000000D0FFFFFFFF121B0130F3D3F1E790
:1038700009277F1BFE406446A2B27243801A00D221
:103880000139220C7243130C1204821A99410B0065
:103890007046043513370100F940A840801900D361
:1038A0000131002B02D1A2420AD2F0BD013000D377
:1038B0000131121BFAD2013BF8D1A24200D2F0BD75
:1038C000013000D30131121BF7E7F0B51C0C00D01A
:1038D00080E00CB400251C0A04D11B02160E3343F1
:1038E000120208351C0B04D11B01160F33431201C1
:1038F00004359C0B04D19B00960F33439200023594
:10390000DC0B02D192185B4101351C009718644111
:103910000134464F7C66464C3C660E0CFFE7FFE7E1
:10392000FFE7C0463C6F6643360C7703BE4697B24E
:103930007743C01B00D20139C01B00D201399FB2AE
:103940007743C91BC91B170C77437E04FF0B801BF1
:10395000B941CE086643360C0C2D33DBB644120B4E
:103960001F053A431B0B97B27743C01B00D20139A6
:103970009FB27743C91B170C77433E043F0C801B53
:10398000B941860D8F023E43664329277F1BFE40C7
:103990000C3D7746AF40BF1930BCA2B2ABB2724308
:1039A0007343801A9941220C7243130C1204801A3B
:1039B000994102000B000137001BA941F9D2781E82
:1039C0000021F0BD0C277F1BFE4077467F0BAF40E8
:1039D000FF19E0E700245D1C07D0144F7D663966AF
:1039E000FFE7FFE7FFE7FFE73C6F95B29EB2654355
:1039F0006643401BB141150C1E0C654366433604FB
:103A00002F0C3E432D04401BB141994204D20200C9
:103A10000B0020000021F0BD01D19042F7D3801AA5
:103A2000994101349942F2D3F6E70000000000D03A
:103A3000FFFFFFFF48404140484018B41B4B5B6804
:103A4000FC46019308BD04DFD33C001018B4174BAB
:103A50001B68FC46019308BD00DFDD3C0010944666
:103A6000134A926F920809D2624618B40F4BDB6872
:103A7000FC46019308BD0CDF953F00100C4AF0B5E1
:103A8000146E556E576F166F6246FFF7EEFF084AC9
:103A90001466556657671667F0BD18B4034B9B68EC
:103AA000FC46019308BD08DF393E0010F00B0020F2
:103AB000000000D0FFB550404240504059404B40BC
:103AC000594000E0FFB5154F4C00640D03D0BC42D7
:103AD00004D10C0314D80020090D09055C00640D05
:103AE00003D0BC4204D11C030AD800221B0D1B05C5
:103AF00001264B4009D44B4003D58B4200D1824272
:103B0000FFBD9942FCD19042FFBD0B43DB1803433C
:103B10001343F5D0C9434918FFBD0000FF0700005B
:103B200000B5FFF7CFFF804100BDC04600B5FFF7ED
:103B3000C9FF01D9002000BD012000BD00B5FFF77D
:103B4000B9FF01D9002000BD012000BD00B5FFF77D
:103B5000B1FF804100BD012040054A00121804D881
:103B60005A00121801D80020704701207047002029
:103B7000704700000021002805D17047C117484058
:103B8000401AFAD0C90713B5064B1B6898470CBCFE
:103B9000441CA2401005120B0349091B09051943D7
:103BA000114310BD501000201F04000010B54C0040
:103BB000620D8023D218DB00D21A5B057E2A10DD4D
:103BC0009E3A13DACC170903490819435242D140EF
:103BD000640001341532202A05DAD04008436043DE
:103BE00010BD002010BD0846604310BDC80FC018AE
:103BF000013810BD18B4044B5B6AFC46019308BD44
:103C000024DF454100100000F00B0020132370B5A5
:103C10001D78012D15D010DD1C48FFF779FC1C4CD8
:103C200001008022200000F071FB022D06D019480F
:103C3000FFF766FC184B186070BD154C174BA3645A
:103C4000F5E7164B124C23606360A360E3602361C9
:103C50006361A361E36123626362A362E36223633E
:103C60006363A363E36323646364A364E36423651E
:103C70006365A365E36523666366A366E3662367FE
:103C80006367A367E367A364D1E7C04653440000BA
:103C9000F00B00204C33000050100020A13C00101D
:103CA00007B5604601880A0A0230DF2AFAD1C9B294
:103CB000820804D3028840880004104300E00068B2
:103CC000014A5050039007BDF00B00200FB403BC15
:103CD0000CBCF0B50124E407634000E0F0B50C0D26
:103CE000CF0F661E3605891B640503D3C9434042C6
:103CF00000D30131640D03D0661CF60A07D0E41B23
:103D000000207F00791C89078912803C24031D0D47
:103D1000DF0F6E1E36059B1B6D0503D3DB4352423E
:103D200000D301336D0D03D06E1CF60A07D0ED1BD6
:103D300000227F007B1C9B079B12803D2D032F1BC5
:103D4000661B58D4A446202E46DA20371400BC4007
:103D50001D00BD40F24033412A4380185941CB0F2A
:103D600005D0C943C04300226442504151416246DC
:103D70004D0D28D10D0D07D100281FD02419404129
:103D80004941013A0D0DF9D0640006D3013000D34A
:103D90000131002C01D140084000013A0BD4941CA1
:103DA000E40A04D112051144DB071944F0BDD90718
:103DB000204B194300E0D9070020F0BD0029DDD1D8
:103DC000002CDBD1F0BD0132C6074008CD072843E7
:103DD0004908002EE1D0D9E73C2E29DA203E4037B1
:103DE0001400BC4000D00124F24014431A00BB4030
:103DF0001C43D317ACE7AC46202F08DA203604006A
:103E0000B4400D00B540F84039412843A5E73C2FA8
:103E10000CDA203F40360400B44000D00124F840C2
:103E200004430800B1400C43C117EAE71000190031
:103E3000002494E70000F07FF0B50C0D661E3605F7
:103E4000891BE60A6405640D02D0651CED0A04D0E6
:103E5000002001210905803C2403A4461C0D671E97
:103E60003F05DB1BE70A6405640D02D0651CED0A03
:103E700004D0002201231B05803C240377406444C6
:103E800097B484B296B27443070C7E43150C6F430B
:103E900080B26843361802D3012000043F18300472
:103EA000350C00197D41844688B29AB250430C0CFF
:103EB00062431F0C7C438EB27E43921902D30126CB
:103EC0003604A4191604170C3618674101BC81B2D8
:103ED0009AB25143040C62431B0C5C4380B25843BA
:103EE000121802D30120000424181004130C4018E7
:103EF00063412D185E410020474106BC88B293B251
:103F000058430C0C6343120C544389B251435B1861
:103F100002D301210904641819041A0C091862411A
:103F20006D1856410020474118BCF902720D11432B
:103F3000F0026A0D1043ED020A0D03D16D194041E4
:103F40004941013B124E9B1B7600B3420ED26D00DD
:103F500007D30130002671416646354301D1400840
:103F600040001B05C918E4072144F0BD0BDA0133FA
:103F700006D1013004D101314F0D01D04908F2E7DB
:103F8000E1070020F0BD013631050020EBE700001D
:103F9000FF030000F0B51C0D671E3F05DB1BE70AA1
:103FA0006405640D02D0661CF60A04D000220123C9
:103FB0001B05803C2403D0252D060026F6432E66E3
:103FC0001E096E66CE0FF619B44649004F0D02D099
:103FD0007E1CF60A03D000200021403F3F033E1B19
:103FE000B600B444013F7F05C91B49082E6F013656
:103FF00076089C02950D25437543ED137543AD136B
:1040000001356D10F603761B0CB4CC02450D2C4324
:10401000A2B2B3B25A43270C7B43350C6F43A4B210
:104020006C431B1902D3012424043F191C041D0CEA
:10403000A4187D4124196D41009A91B2ACB261433C
:10404000170C7C432B0C5F4392B25A43A41802D343
:1040500001221204BF182204230C52187B41019C38
:104060006C431B19520ED9010A434401A01A81B2B4
:10407000B2B2514303145A43360C734387B27743A9
:10408000D617D21900277E4136049B191704160C47
:104090007F185E417316ED18F301002680337541D9
:1040A000A90F06D16400690AE8055B0A184309D222
:1040B0002FE00422944480337541A90AA8059B0A85
:1040C000184326D3404149412404009A019B0D0026
:1040D0005543641B4343E41A95B286B27543170CEB
:1040E0007E43030C5F4392B25A43B61802D30122B7
:1040F0001204BF183204330C52197B4152429C41C6
:10410000002C02D40022013051414008CA0710435C
:10411000490802B06246D7079210084BD218084BE4
:104120009A4203D212058918C919F0BD0020002A4D
:1041300001DC3900F0BD01331905F5E7FD0300008E
:10414000FE070000002200B5203200F004F808004D
:1041500000BD000000220B150AD410B5944600F0F3
:1041600031F81414013400DA0021CB17144C204725
:104170000020002170476244343A0CD40C2A07DA3C
:1041800004009140904052422032D440214310BD5F
:10419000D843D94310BD203207D40C469440524234
:1041A00020321141D040204310BD0800C9172032F1
:1041B00003D452422032104110BD1800190010BD26
:1041C000774100100A0DCC0F531E1B05C91A52056A
:1041D00003D3C943404200D30131520D03D0531CD5
:1041E000DB0A07D0121B00206400611C89078912BA
:1041F000803A1203014BD21A70470000FF030000FF
:1042000051434343C9188C46110C83B24B4310B43D
:10421000040C614392B280B2504362431C041B0CF5
:10422000001910BC59411304120CC01851416144CB
:1042300070470000132310B512481C78FFF768F987
:104240000100012C0AD003DD80220F4800F05EF847
:104250000E48FFF755F90E4B186010BD0A4C54225A
:10426000200000F053F80B4B6365A365E3652366FC
:104270006366A366E36623676367A367E3672362F6
:10428000E361E5E753460000F00C00204C330000EA
:10429000501000209942001007B5604601880A0AB4
:1042A0000230DF2AFAD1C9B2820804D302884088DA
:1042B0000004104300E00068014A5050039007BD1D
:1042C000F00C002010B5040000F0F6F9002804D02E
:1042D000034B04199C4200D810BD0248FDF730FC86
:1042E000000004205853001010B500F0EFF910BD85
:1042F00001480421014B18477002002021350010AD
:10430000014B1B681847000070020020014B5B68DE
:104310001847000070020020030010B508001100CB
:104320001B68984710BDC046F0B546464F46D64676
:10433000C0B5437C80460E001700002B46D0002AF3
:104340003FDD4B1E9946244B0125002400209A4650
:104350000DE04B461B5D0D3B5A425341325DDBB2D3
:104360000A2A0BD02B00013401359F421ADD002CA4
:10437000EFD14346325D1B7C0A2AF3D1002BF1D1E9
:10438000A04204DA4346211A1B6830189847434676
:1043900050461B6802219847013428002B00013544
:1043A0009F42E4DC874204DD4346391A1B6830181B
:1043B0009847F619013E33780D3B5A425341424625
:1043C0001374E0BCBA46B146A846F0BD03681100BC
:1043D00030009847F5E7C046CC530010F0B557467B
:1043E0004E464546DE461C00D023E0B51B061F683E
:1043F000344B83B006000D00180001A991469A467F
:1044000000F01AFE8046002808D1019B7FB29F422F
:1044100004D0504600F018FE012398466B1C03D1CF
:10442000300000F085FC0500002C27D1264F274BDB
:104430001C68002C18D04B46002B21D1244B9946E8
:1044400002E0E468002C0FD02368002BF9D04B4623
:104450001B68002B01D0A342F3D120002A003100B9
:10446000B847E468002CEFD14346002B25D103B0B8
:10447000F0BCBB46B246A946A046F0BD154FD6E7F4
:10448000134B99460A239B4602E0E468002CEBD0CC
:104490002368002BF9D04B461B68002B01D0A342A8
:1044A000F3D12A0031002000B8475A466B4620005D
:1044B0001A7101A90122B847E7E7504600F09CFDB8
:1044C000D5E7C046D00A002029430010BC0E0020CA
:1044D000C40E002019430010F0B5CE46474680B503
:1044E00083B06B46DE1CD02330701B061C681F4B4C
:1044F000804601A91800994600F09EFD071E20D0B5
:104500001B4B1C68002C28D01A4D02E0E468002CDC
:104510000FD02368002BF9D02B68002B01D0A342C9
:10452000F4D1200001223100FFF7FEFEE468002CE8
:10453000EFD1002F11D1404603B0C0BCB946B04600
:10454000F0BD019B64B29C420BD0484600F07CFD5C
:10455000074B01271C68002CD6D1484600F04CFDC3
:10456000E9E7034B1C68002CCED1E4E7D00A002019
:10457000BC0E0020C40E002070B5040000F0D8FB73
:1045800000230100050001222000FFF727FF084B50
:104590001C68002C06D06368002B05D09847E4689F
:1045A000002CF8D1280070BDE468002CF3D1F9E7A5
:1045B000BC0E00200A4A1368002B05D10CE01A003B
:1045C000DB680C32002B07D09842F8D1002902D1C9
:1045D000C3681360C16070470029FCD01060FAE71F
:1045E000BC0E002010B500F043F810BDF0B50D1E54
:1045F00015DD0E4B0D271A680D4B4519D31859427E
:104600004B410C495B005E5E20210478A64207D036
:1046100093691942FCD101301460A842F5D1F0BD74
:1046200093691942FCD11760F2E7C0466C10002074
:104630000080FCBF6810002030B504000D1E12DDA4
:1046400000201021094B013C1A689369194208D1D6
:10465000013093691942FCD1136823548542F4D187
:1046600030BD0028FCD103204042F9E76C10002047
:10467000E12110B50B4B0C481B780C4B49021B7801
:104680000B4B1860FDF758F902210020FCF75AF98E
:1046900002210120FCF756F901210648FFF78AFFA5
:1046A00010BDC0462C540010004003403054001090
:1046B0006C1000208002002010B5034B0100186828
:1046C00000F00EF810BDC0469402002010B5034B58
:1046D0000100186800F0A8FB10BDC046940200203D
:1046E000F0B54E464546DE465746E0B50D000B3563
:1046F000060083B0162D22D8102900D9B2E000F0B0
:10470000B1FA102518230220CC4FFB181A005C6860
:10471000083A944200D1B5E0032362689A4313003B
:10472000E268A168CA6091600122E318596830000C
:104730000A435A6000F09EFA2000083095E00723F3
:104740009D4300D58EE0A94200D98BE000F08AFAA3
:10475000FC235B009D4200D2A7E1680A00D18BE0F8
:10476000042800D97AE138239846A80980443930D2
:10477000C100B24F79184C680839A1420ED003230A
:104780009C4604E0002ACBDAE468A14206D06246E7
:10479000636893435A1B0F2AF4DD40463A003C6994
:1047A0000832944200D178E0032361689943894636
:1047B0000B00491B0F2900DD7BE17A613A6100297A
:1047C000B2DA80229200914500D30FE15909DA084C
:1047D00001238B40D2007968D2190B4391687B602A
:1047E000E260A1609460CC60012182109140994206
:1047F00059D80B4205D103229043490004300B42A3
:10480000FBD003239846C3009946B944CC46824660
:104810006346DC68A44507D12CE1002A00DB35E1C2
:10482000E468A44500D125E14246636893435A1BDE
:104830000F2AF2DD01208046611905436560A068FA
:10484000E5680837C560A86040461043F960B96064
:104850004860CF6030008F60E25000F00BFA20001B
:10486000083002E00C230020336003B0F0BCBB46EC
:10487000B246A946A046F0BD80213F23402098467D
:10488000890076E7DC680230A34200D044E73A00B2
:104890003C690832944200D086E701217B6882108F
:1048A00091409942A5D90323BC6862689A43914616
:1048B000954203D8531B0F2B00DD89E023004B44A6
:1048C0005F4A01935F4B93461B681268EB180132F5
:1048D00000D13DE15C4A944663441B0B1B030093EB
:1048E0003000009900F0CEF903008046013300D17A
:1048F000FAE0019B834200D9F4E0544B00981A007F
:104900009A46126803009446514663440B6001992D
:104910001A00414500D151E15B461B68013300D1CB
:1049200056E1434601995B1A9A1853461A600723C9
:10493000424641461A400192194200D112E1082331
:104940009846881A424B0099804441449B1A5B1A4E
:104950001B051B0D0091300019009B4600F092F9D9
:10496000431C00D150E14346C01A03005B4400934E
:10497000534652461B6801215B4413604246404641
:10498000BA60009A0A434260BC4200D124E14A4620
:104990000F2A00D822E107200C3A824360680140C8
:1049A000052011436160A118486088600F2A00D972
:1049B00035E142464446526826490868984200D28A
:1049C0000B6025490868984200D38FE00B608DE0AA
:1049D0000122290013431143651961603000BD6055
:1049E0006B6000F047F9200008303EE75A0A042ABD
:1049F00072D9142A00D9C5E011005C325B31D200B3
:104A000008235B429C46BA18944463469A68032381
:104A10009846944500D19EE04346516899434945E4
:104A200002D992689445F7D1D3689C467B68614669
:104A3000A260E1608C60D460D6E6C046C00600206B
:104A4000C80A0020400E00200F100000100E0020A9
:104A500008100000380E00203C0E0020142852D907
:104A6000542800D996E06E239846280B80446F3076
:104A7000C1007EE608239B46073BDC449B46DA44A4
:104A800043465246134200D0C2E64CE00122E318EE
:104A9000596830000A435A60E368A268D3609A609C
:104AA00000F0E8F820000830DFE62B00E8080833C3
:104AB0002AE6012360191D43656078613861C26090
:104AC00082601A004B460A4342603000E15000F019
:104AD000D1F820000830C8E69A091100393238317F
:104AE000D2008DE7BC4260D0BC68626803239A4361
:104AF000531B954202D80F2B00DD69E7300000F010
:104B0000B9F80020B1E65B23984680445C30C100D0
:104B10002FE608235B429C46E1444B469B680138E4
:104B20004B4500D098E043460342F2D17B688B436B
:104B30007B604900994200D9B5E6002904D1B2E66C
:104B4000042294464900E2440B42F9D050465AE60A
:104B500010330093C4E68910023B8B4079680B4305
:104B60007B6064E7009B300043445B421B051B0DE8
:104B700019009B4600F086F8431C00D0F3E60023A2
:104B80009B46F5E6542A2BD81A0B11006F326E3172
:104B9000D20035E7AA235B0098422BD8DD3B98462C
:104BA000E80B80447830C100E3E52C4B009A9A462C
:104BB0001B689C46534662441A60ADE6090500D066
:104BC000AAE60200BC684A4401310A436260F3E687
:104BD0005B4642461A60AAE64446EDE641608DE730
:104BE000AA2149008A4224D8DA0B110078327731A1
:104BF000D20005E71A4B984224D87C239846A80C8B
:104C000080447D30C100B4E5009A019B9446424641
:104C1000083B63449B1A009300239B46A8E62100AF
:104C20003000083100F000F95346BC681B68626828
:104C3000C2E60B498A420BD89A0C11007D327C31B6
:104C4000D200DDE6FE217E237F209846890090E594
:104C5000FE227E219200D3E67B686AE7100E0020D8
:104C60005405000010B5024800F0C0F910BDC04660
:104C70000C0E002010B5024800F0BAF910BDC04675
:104C80000C0E0020002370B5064D040008002B60B8
:104C9000FCF73AFF431C00D070BD2B68002BFBD003
:104CA0002360F9E7C00E0020024670B50A43920760
:104CB0002AD11E4DEE0104C808C9541B9443344048
:104CC00017D0D0B2D9B2401A2106014310D190B208
:104CD00099B2401A210401430AD110021902000AB4
:104CE000090A401A2102014302D1100E190E401A7E
:104CF00070BD9A42DFD010BA19BA884201D901209A
:104D000070BD0020C04370BD02780B7801300131C6
:104D1000002A09D09A4207D102780B78013001317C
:104D2000002A01D09A42EFD0D01A70BD01010101D2
:104D300010B583070AD00300032102E001330B42C0
:104D400005D01A78002AF9D1181A10BD0300196885
:104D50000C4A0D4C8A188A4322420FD15968094ADD
:104D600004338A188A43224208D15968054A043319
:104D70008A188A432242F1D000E001331A78002ACF
:104D8000FBD1E1E7FFFEFEFE80808080F8B50C00DD
:104D90000500FFF767FF204FBB685E6803239E4353
:104DA0001E4B341B9C466444240B013C11332403EA
:104DB0009C4207DB00212800FFF764FFBB689B19BA
:104DC000984204D02800FFF755FF0020F8BD2800C6
:104DD0006142FFF757FF431C0DD00122BB68361B11
:104DE00016435E600E4B28001A68141B1C60FFF708
:104DF00041FF0120EAE700212800FFF743FFBA68DE
:104E0000831A0F2BDEDD07490968401A0449086040
:104E100001210B435360D5E7C0060020EF0F0000CF
:104E2000100E0020C80A0020F0B5C64605000C0090
:104E300000B500294FD0FFF715FF210008394C6855
:104E4000012622000320B2438F187B688343624807
:104E500098468368BB426AD043467B6026421ED197
:104E600008239C460C688444091B12198C6864450D
:104E70004FD0CB68E3609C604346FC1864683442C2
:104E800011D1BB68554C4244A34200D17EE0FC687E
:104E9000DC60A360012313434B608A5006E0FC18DA
:104EA00064683442EDD016434E603A6080239B0024
:104EB0009A4213D25409D3080122A2404468DB006D
:104EC0002243426018188368C8608B608160D96093
:104ED0002800FFF7CFFE80BCB846F0BD530A042B74
:104EE0003ED89409260039343836E4000419236882
:104EF000083C03279C4242D05868B843904202D9EC
:104F00009B689C42F8D1DC68CC608B60A160D96062
:104F1000DEE74346F8184068304257D1FB68B8686E
:104F200042441643C36098604E608A50D0E7130035
:104F30004344264206D10A68891A8C689B18CA68BD
:104F4000E260946001221A434A60254A8160126837
:104F50009A42BDD8234B28001968FFF717FFB7E71F
:104F6000142B07D9542B1AD8140B26006F346E3625
:104F7000E400BBE71E005C335B36DC00B6E70122D1
:104F8000B610B240466832434260BDE7D9609960CE
:104F9000CB608B60012313434B608A5098E7AA24AF
:104FA0006400A34205D8D40B260078347736E40099
:104FB0009CE70D4CA34205D8940C26007D347C362A
:104FC000E40093E7FE247E26A4008FE7330013431A
:104FD0004B603A607CE7C046C0060020C80600204F
:104FE000CC0A0020400E0020540500007047C04647
:104FF0007047C046F8B5C04601B40248844601BCBB
:10500000604700BF4D01002001B40248844601BC46
:10501000604700BF7501002001B40248844601BC0E
:10502000604700BF7901002001B40248844601BCFA
:10503000604700BF7501002001B40248844601BCEE
:10504000604700BF0901002001B40248844601BC4A
:08505000604700BFC100002011
:1050580041540D004F4B0D0A0000000053696D20AC
:1050680069732072656164790D0A0000436F6E6E82
:10507800656374696E6720776974682053494D20A9
:105088006661696C65642C20747279206167616956
:105098006E2E2E2E0D0A00004C656E3A25643D3E9C
:1050A80025730D0A00000000496E697469616C6916
:1050B8007A696E672053494D206D6F64756C650D74
:1050C8000A000000486172647761726520616C6152
:1050D800726D20256420616C726561647920636C4F
:1050E80061696D65640000000A2A2A2A2050414E31
:1050F8004943202A2A2A0A0048617264206173738E
:1051080065727400666E6900666E692B00000000A7
:105118006E616E00666E692D000000005C2A00104A
:10512800122A0010122A0010542A0010122A001005
:10513800122A0010122A0010122A0010122A001037
:10514800122A0010122A00104C2A0010122A0010ED
:10515800442A0010122A0010122A00103C2A0010BB
:105168000E2C00106E2A0010022C00106E2A00105F
:105178001E2C00106E2A00106E2A00106E2A0010D5
:105188006E2A00106E2A00106E2A00106E2A001077
:10519800642A00106E2A00106E2A00106E2A001071
:1051A8006E2A00106E2A0010642A0010642C001069
:1051B800CE290010CE290010CE290010CE290010CB
:1051C800CE290010CE290010CE290010CE290010BB
:1051D800CE290010CE290010CE290010CE290010AB
:1051E800CE290010CE290010CE290010CE2900109B
:1051F800CE290010CE290010CE290010CE2900108B
:10520800CE290010CE290010CE290010CE2900107A
:10521800CE290010CE290010CE290010CE2900106A
:10522800CE290010CE290010CE290010922E001091
:10523800302C0010922E0010CE290010CE2900101C
:10524800CE290010CE290010CE290010CE2900103A
:10525800CE290010CE290010CE290010CE2900102A
:10526800CE290010CE290010CE290010CE2900101A
:10527800CE290010CE290010162B0010CE290010C0
:10528800CE290010CE290010CE290010CE290010FA
:10529800CE290010CE290010CE290010CE290010EA
:1052A800162B0010782C0010162B0010922E0010D0
:1052B800302C0010922E0010CE290010162B001052
:1052C800CE290010CE290010CE290010CE290010BA
:1052D800CE290010162B0010A22D0010CE29001088
:1052E800CE290010E42C0010CE290010162B001037
:1052F800CE290010CE290010162B00100000000047
:10530800000000000000F03F000000000000244002
:1053180000000000000059400000000000408F40DD
:10532800000000000088C34000000000006AF84048
:105338000000000080842E4100000000D01263416C
:105348000000000084D797410000000065CDCD41E2
:105358004F7574206F66206D656D6F72790000005F
:1053680052656C6561736500626F6F74325F773286
:105378003571303830000000312E342E30000000F6
:105388007069636F000000007265706F7369746FF5
:10539800727900004A616E202037203230323300A3
:1053A80006005250BBFF3CB688530010060052500E
:1053B800E182887F7053001006005250D3F0754286
:1053C800685300100D0A000055415254207374644C
:1053D800696E000055415254207374646F757400EF
:1053E8005541525420737464696E202F207374647D
:1053F8006F7574000600525053B4F4A1E8530010BE
:08540800080052509200000060
:10541000B4020010A80200109C020010A853001053
:1054200090020010B4530010C0530010FC53001041
:04543000085400100C
:10543400D02330B500251B0600245D5706E0036821
:10544400BFF35F8F1C6081F3108820BF0268EFF305
:10545400108172B61368002BFCD0BFF35F8F037901
:105464007F2BECD905710368BFF35F8F00221A60AC
:1054740081F3108830BDC04603000068EFF3108C40
:1054840072B60268002AFCD0BFF35F8F04229A56DA
:10549400002A0BDB00290FD000200A601B68BFF331
:1054A4005F8F00221A608CF310887047D022120696
:1054B400126801201A71F1E70020EFE70268EFF3A8
:1054C400108172B61368002BFCD0BFF35F8FFF23EB
:1054D40003710368BFF35F8F00221A6081F31088A1
:1054E40040BF70477047C04670B5CCB283070DD03B
:1054F400531E002A0FD0032504E00130284206D0B1
:10550400013B08D30278A242F7D170BD1300032BEC
:105514000CD8002B01D10020F7E7C31802E00130BA
:105524008342F8D00278A242F9D1EEE7FF25294060
:105534000D0229430D04074E0D43026806496A40D3
:10554400511891433142E8D1043B0430032BF4D881
:10555400DFE7C04680808080FFFEFEFE1000000072
:105564000000000000000100000000000000000036
:105574000000020000000000000000000000030022
:1055840000000000000000000000FF000000000018
:1055940000B5486801318E46004770460938014914
:1055A400884700BD390C00105002002000000000A4
:1055B400F00A00207C0E0020000000000000000023
:1055C4008C0E00200000000000000000100000000D
:1055D400503300004C3300005433000052330000B9
:1055E4004D5300004D430000533400004334000089
:1055F400ED450010000000003946001000000000D6
:105604000001000098020020000000008405002032
:10561400EC050020540600200000000000000000FB
:105624000000000000000000000000000000000076
:105634000000000000000000000000000000000066
:105644000000000000000000000000000000000056
:105654000000000000000000000000000000000046
:105664000000000000000000000000000000000036
:105674000000000000000000000000000000000026
:105684000000000000000000000000000000000016
:105694000000000000000000000000000000000006
:1056A40000000000000000000000000000000000F6
:1056B40001000000000000000E33CDAB34126DE693
:1056C400ECDE05000B0000000000000000000000FC
:1056D40000000000000000000000000000000000C6
:1056E40000000000000000000000000000000000B6
:1056F40000000000000000000000000000000000A6
:105704000000000000000000000000000000000095
:105A34000000000000000000C0060020C006002096
:105A4400C8060020C8060020D0060020D00600208A
:105A5400D8060020D8060020E0060020E00600203A
:105A6400E8060020E8060020F0060020F0060020EA
:105A7400F8060020F8060020000700200007002098
:105A84000807002008070020100700201007002046
:105A940018070020180700202007002020070020F6
:105AA40028070020280700203007002030070020A6
:105AB4003807002038070020400700204007002056
:105AC4004807002048070020500700205007002006
:105AD40058070020580700206007002060070020B6
:105AE4006807002068070020700700207007002066
:105AF4007807002078070020800700208007002016
:105B040088070020880700209007002090070020C5
:105B14009807002098070020A0070020A007002075
:105B2400A8070020A8070020B0070020B007002025
:105B3400B8070020B8070020C0070020C0070020D5
:105B4400C8070020C8070020D0070020D007002085
:105B5400D8070020D8070020E0070020E007002035
:105B6400E8070020E8070020F0070020F0070020E5
:105B7400F8070020F8070020000800200008002093
:105B84000808002008080020100800201008002041
:105B940018080020180800202008002020080020F1
:105BA40028080020280800203008002030080020A1
:105BB4003808002038080020400800204008002051
:105BC4004808002048080020500800205008002001
:105BD40058080020580800206008002060080020B1
:105BE4006808002068080020700800207008002061
:105BF4007808002078080020800800208008002011
:105C040088080020880800209008002090080020C0
:105C14009808002098080020A0080020A008002070
:105C2400A8080020A8080020B0080020B008002020
:105C3400B8080020B8080020C0080020C0080020D0
:105C4400C8080020C8080020D0080020D008002080
:105C5400D8080020D8080020E0080020E008002030
:105C6400E8080020E8080020F0080020F0080020E0
:105C7400F8080020F808002000090020000900208E
:105C8400080900200809002010090020100900203C
:105C940018090020180900202009002020090020EC
:105CA400280900202809002030090020300900209C
:105CB400380900203809002040090020400900204C
:105CC40048090020480900205009002050090020FC
:105CD40058090020580900206009002060090020AC
:105CE400680900206809002070090020700900205C
:105CF400780900207809002080090020800900200C
:105D040088090020880900209009002090090020BB
:105D14009809002098090020A0090020A00900206B
:105D2400A8090020A8090020B0090020B00900201B
:105D3400B8090020B8090020C0090020C0090020CB
:105D4400C8090020C8090020D0090020D00900207B
:105D5400D8090020D8090020E0090020E00900202B
:105D6400E8090020E8090020F0090020F0090020DB
:105D7400F8090020F8090020000A0020000A002089
:105D8400080A0020080A0020100A0020100A002037
:105D9400180A0020180A0020200A0020200A0020E7
:105DA400280A0020280A0020300A0020300A002097
:105DB400380A0020380A0020400A0020400A002047
:105DC400480A0020480A0020500A0020500A0020F7
:105DD400580A0020580A0020600A0020600A0020A7
:105DE400680A0020680A0020700A0020700A002057
